{
  "_format": "hh-sol-artifact-1",
  "contractName": "Domains",
  "sourceName": "contracts/Domains.sol",
  "abi": [
    {
      "inputs": [
        {
          "internalType": "string",
          "name": "_tld",
          "type": "string"
        }
      ],
      "stateMutability": "payable",
      "type": "constructor"
    },
    {
      "inputs": [],
      "name": "AlreadyRegistered",
      "type": "error"
    },
    {
      "inputs": [
        {
          "internalType": "string",
          "name": "name",
          "type": "string"
        }
      ],
      "name": "InvalidName",
      "type": "error"
    },
    {
      "inputs": [],
      "name": "Unauthorized",
      "type": "error"
    },
    {
      "anonymous": false,
      "inputs": [
        {
          "indexed": true,
          "internalType": "address",
          "name": "owner",
          "type": "address"
        },
        {
          "indexed": true,
          "internalType": "address",
          "name": "approved",
          "type": "address"
        },
        {
          "indexed": true,
          "internalType": "uint256",
          "name": "tokenId",
          "type": "uint256"
        }
      ],
      "name": "Approval",
      "type": "event"
    },
    {
      "anonymous": false,
      "inputs": [
        {
          "indexed": true,
          "internalType": "address",
          "name": "owner",
          "type": "address"
        },
        {
          "indexed": true,
          "internalType": "address",
          "name": "operator",
          "type": "address"
        },
        {
          "indexed": false,
          "internalType": "bool",
          "name": "approved",
          "type": "bool"
        }
      ],
      "name": "ApprovalForAll",
      "type": "event"
    },
    {
      "anonymous": false,
      "inputs": [
        {
          "indexed": true,
          "internalType": "address",
          "name": "from",
          "type": "address"
        },
        {
          "indexed": true,
          "internalType": "address",
          "name": "to",
          "type": "address"
        },
        {
          "indexed": true,
          "internalType": "uint256",
          "name": "tokenId",
          "type": "uint256"
        }
      ],
      "name": "Transfer",
      "type": "event"
    },
    {
      "inputs": [
        {
          "internalType": "address",
          "name": "to",
          "type": "address"
        },
        {
          "internalType": "uint256",
          "name": "tokenId",
          "type": "uint256"
        }
      ],
      "name": "approve",
      "outputs": [],
      "stateMutability": "nonpayable",
      "type": "function"
    },
    {
      "inputs": [
        {
          "internalType": "address",
          "name": "owner",
          "type": "address"
        }
      ],
      "name": "balanceOf",
      "outputs": [
        {
          "internalType": "uint256",
          "name": "",
          "type": "uint256"
        }
      ],
      "stateMutability": "view",
      "type": "function"
    },
    {
      "inputs": [
        {
          "internalType": "string",
          "name": "",
          "type": "string"
        }
      ],
      "name": "domains",
      "outputs": [
        {
          "internalType": "address",
          "name": "",
          "type": "address"
        }
      ],
      "stateMutability": "view",
      "type": "function"
    },
    {
      "inputs": [
        {
          "internalType": "string",
          "name": "name",
          "type": "string"
        }
      ],
      "name": "getAddress",
      "outputs": [
        {
          "internalType": "address",
          "name": "",
          "type": "address"
        }
      ],
      "stateMutability": "view",
      "type": "function"
    },
    {
      "inputs": [],
      "name": "getAllNames",
      "outputs": [
        {
          "internalType": "string[]",
          "name": "",
          "type": "string[]"
        }
      ],
      "stateMutability": "view",
      "type": "function"
    },
    {
      "inputs": [
        {
          "internalType": "uint256",
          "name": "tokenId",
          "type": "uint256"
        }
      ],
      "name": "getApproved",
      "outputs": [
        {
          "internalType": "address",
          "name": "",
          "type": "address"
        }
      ],
      "stateMutability": "view",
      "type": "function"
    },
    {
      "inputs": [
        {
          "internalType": "string",
          "name": "name",
          "type": "string"
        }
      ],
      "name": "getRecord",
      "outputs": [
        {
          "internalType": "string",
          "name": "",
          "type": "string"
        }
      ],
      "stateMutability": "view",
      "type": "function"
    },
    {
      "inputs": [
        {
          "internalType": "address",
          "name": "owner",
          "type": "address"
        },
        {
          "internalType": "address",
          "name": "operator",
          "type": "address"
        }
      ],
      "name": "isApprovedForAll",
      "outputs": [
        {
          "internalType": "bool",
          "name": "",
          "type": "bool"
        }
      ],
      "stateMutability": "view",
      "type": "function"
    },
    {
      "inputs": [],
      "name": "isOwner",
      "outputs": [
        {
          "internalType": "bool",
          "name": "",
          "type": "bool"
        }
      ],
      "stateMutability": "view",
      "type": "function"
    },
    {
      "inputs": [],
      "name": "name",
      "outputs": [
        {
          "internalType": "string",
          "name": "",
          "type": "string"
        }
      ],
      "stateMutability": "view",
      "type": "function"
    },
    {
      "inputs": [
        {
          "internalType": "uint256",
          "name": "",
          "type": "uint256"
        }
      ],
      "name": "names",
      "outputs": [
        {
          "internalType": "string",
          "name": "",
          "type": "string"
        }
      ],
      "stateMutability": "view",
      "type": "function"
    },
    {
      "inputs": [],
      "name": "owner",
      "outputs": [
        {
          "internalType": "address payable",
          "name": "",
          "type": "address"
        }
      ],
      "stateMutability": "view",
      "type": "function"
    },
    {
      "inputs": [
        {
          "internalType": "uint256",
          "name": "tokenId",
          "type": "uint256"
        }
      ],
      "name": "ownerOf",
      "outputs": [
        {
          "internalType": "address",
          "name": "",
          "type": "address"
        }
      ],
      "stateMutability": "view",
      "type": "function"
    },
    {
      "inputs": [
        {
          "internalType": "string",
          "name": "name",
          "type": "string"
        }
      ],
      "name": "price",
      "outputs": [
        {
          "internalType": "uint256",
          "name": "",
          "type": "uint256"
        }
      ],
      "stateMutability": "pure",
      "type": "function"
    },
    {
      "inputs": [
        {
          "internalType": "string",
          "name": "",
          "type": "string"
        }
      ],
      "name": "records",
      "outputs": [
        {
          "internalType": "string",
          "name": "",
          "type": "string"
        }
      ],
      "stateMutability": "view",
      "type": "function"
    },
    {
      "inputs": [
        {
          "internalType": "string",
          "name": "name",
          "type": "string"
        }
      ],
      "name": "register",
      "outputs": [],
      "stateMutability": "payable",
      "type": "function"
    },
    {
      "inputs": [
        {
          "internalType": "string",
          "name": "name",
          "type": "string"
        },
        {
          "internalType": "uint256",
          "name": "numberOfDays",
          "type": "uint256"
        }
      ],
      "name": "registerLaunchDomain",
      "outputs": [],
      "stateMutability": "payable",
      "type": "function"
    },
    {
      "inputs": [
        {
          "internalType": "address",
          "name": "from",
          "type": "address"
        },
        {
          "internalType": "address",
          "name": "to",
          "type": "address"
        },
        {
          "internalType": "uint256",
          "name": "tokenId",
          "type": "uint256"
        }
      ],
      "name": "safeTransferFrom",
      "outputs": [],
      "stateMutability": "nonpayable",
      "type": "function"
    },
    {
      "inputs": [
        {
          "internalType": "address",
          "name": "from",
          "type": "address"
        },
        {
          "internalType": "address",
          "name": "to",
          "type": "address"
        },
        {
          "internalType": "uint256",
          "name": "tokenId",
          "type": "uint256"
        },
        {
          "internalType": "bytes",
          "name": "_data",
          "type": "bytes"
        }
      ],
      "name": "safeTransferFrom",
      "outputs": [],
      "stateMutability": "nonpayable",
      "type": "function"
    },
    {
      "inputs": [
        {
          "internalType": "address",
          "name": "operator",
          "type": "address"
        },
        {
          "internalType": "bool",
          "name": "approved",
          "type": "bool"
        }
      ],
      "name": "setApprovalForAll",
      "outputs": [],
      "stateMutability": "nonpayable",
      "type": "function"
    },
    {
      "inputs": [
        {
          "internalType": "string",
          "name": "name",
          "type": "string"
        },
        {
          "internalType": "string",
          "name": "record",
          "type": "string"
        }
      ],
      "name": "setRecord",
      "outputs": [],
      "stateMutability": "nonpayable",
      "type": "function"
    },
    {
      "inputs": [
        {
          "internalType": "bytes4",
          "name": "interfaceId",
          "type": "bytes4"
        }
      ],
      "name": "supportsInterface",
      "outputs": [
        {
          "internalType": "bool",
          "name": "",
          "type": "bool"
        }
      ],
      "stateMutability": "view",
      "type": "function"
    },
    {
      "inputs": [],
      "name": "symbol",
      "outputs": [
        {
          "internalType": "string",
          "name": "",
          "type": "string"
        }
      ],
      "stateMutability": "view",
      "type": "function"
    },
    {
      "inputs": [],
      "name": "tld",
      "outputs": [
        {
          "internalType": "string",
          "name": "",
          "type": "string"
        }
      ],
      "stateMutability": "view",
      "type": "function"
    },
    {
      "inputs": [],
      "name": "tldLaunch",
      "outputs": [
        {
          "internalType": "string",
          "name": "",
          "type": "string"
        }
      ],
      "stateMutability": "view",
      "type": "function"
    },
    {
      "inputs": [
        {
          "internalType": "uint256",
          "name": "tokenId",
          "type": "uint256"
        }
      ],
      "name": "tokenURI",
      "outputs": [
        {
          "internalType": "string",
          "name": "",
          "type": "string"
        }
      ],
      "stateMutability": "view",
      "type": "function"
    },
    {
      "inputs": [
        {
          "internalType": "address",
          "name": "from",
          "type": "address"
        },
        {
          "internalType": "address",
          "name": "to",
          "type": "address"
        },
        {
          "internalType": "uint256",
          "name": "tokenId",
          "type": "uint256"
        }
      ],
      "name": "transferFrom",
      "outputs": [],
      "stateMutability": "nonpayable",
      "type": "function"
    },
    {
      "inputs": [
        {
          "internalType": "string",
          "name": "name",
          "type": "string"
        }
      ],
      "name": "valid",
      "outputs": [
        {
          "internalType": "bool",
          "name": "",
          "type": "bool"
        }
      ],
      "stateMutability": "pure",
      "type": "function"
    },
    {
      "inputs": [],
      "name": "withdraw",
      "outputs": [],
      "stateMutability": "nonpayable",
      "type": "function"
    }
  ],
  "bytecode": "0x6080604052604051806107a0016040528061076681526020016200554b6107669139600f908051906020019062000038929190620002c8565b506040518060400160405280600d81526020017f3c2f746578743e3c2f7376673e000000000000000000000000000000000000008152506010908051906020019062000086929190620002c8565b5060405162005cb138038062005cb18339818101604052810190620000ac919062000515565b6040518060400160405280601081526020017f4c6974204e616d652053657276696365000000000000000000000000000000008152506040518060400160405280600381526020017f4c4e530000000000000000000000000000000000000000000000000000000000815250816000908051906020019062000130929190620002c8565b50806001908051906020019062000149929190620002c8565b50505033600960006101000a81548173ffffffffffffffffffffffffffffffffffffffff021916908373ffffffffffffffffffffffffffffffffffffffff1602179055508060089080519060200190620001a5929190620002c8565b50620001f26040518060400160405280601881526020017f2573206e616d652073657276696365206465706c6f796564000000000000000081525082620001f960201b62001cd01760201c565b5062000663565b6200029b828260405160240162000212929190620005c3565b6040516020818303038152906040527f4b5c4277000000000000000000000000000000000000000000000000000000007bffffffffffffffffffffffffffffffffffffffffffffffffffffffff19166020820180517bffffffffffffffffffffffffffffffffffffffffffffffffffffffff83818316178352505050506200029f60201b60201c565b5050565b60008151905060006a636f6e736f6c652e6c6f679050602083016000808483855afa5050505050565b828054620002d6906200062d565b90600052602060002090601f016020900481019282620002fa576000855562000346565b82601f106200031557805160ff191683800117855562000346565b8280016001018555821562000346579182015b828111156200034557825182559160200191906001019062000328565b5b50905062000355919062000359565b5090565b5b80821115620003745760008160009055506001016200035a565b5090565b6000604051905090565b600080fd5b600080fd5b600080fd5b600080fd5b6000601f19601f8301169050919050565b7f4e487b7100000000000000000000000000000000000000000000000000000000600052604160045260246000fd5b620003e18262000396565b810181811067ffffffffffffffff82111715620004035762000402620003a7565b5b80604052505050565b60006200041862000378565b9050620004268282620003d6565b919050565b600067ffffffffffffffff821115620004495762000448620003a7565b5b620004548262000396565b9050602081019050919050565b60005b838110156200048157808201518184015260208101905062000464565b8381111562000491576000848401525b50505050565b6000620004ae620004a8846200042b565b6200040c565b905082815260208101848484011115620004cd57620004cc62000391565b5b620004da84828562000461565b509392505050565b600082601f830112620004fa57620004f96200038c565b5b81516200050c84826020860162000497565b91505092915050565b6000602082840312156200052e576200052d62000382565b5b600082015167ffffffffffffffff8111156200054f576200054e62000387565b5b6200055d84828501620004e2565b91505092915050565b600081519050919050565b600082825260208201905092915050565b60006200058f8262000566565b6200059b818562000571565b9350620005ad81856020860162000461565b620005b88162000396565b840191505092915050565b60006040820190508181036000830152620005df818562000582565b90508181036020830152620005f5818462000582565b90509392505050565b7f4e487b7100000000000000000000000000000000000000000000000000000000600052602260045260246000fd5b600060028204905060018216806200064657607f821691505b602082108114156200065d576200065c620005fe565b5b50919050565b614ed880620006736000396000f3fe6080604052600436106101c25760003560e01c80638da5cb5b116100f7578063c1880a9811610095578063f060c4e211610064578063f060c4e2146106b2578063f2c298be146106ce578063fb825e5f146106ea578063fe2c619814610715576101c2565b8063c1880a98146105e4578063c5262ff11461060d578063c87b56dd14610638578063e985e9c514610675576101c2565b80639791c097116100d15780639791c09714610518578063a22cb46514610555578063b88d4fde1461057e578063bf40fac1146105a7576101c2565b80638da5cb5b146104975780638f32d59b146104c257806395d89b41146104ed576101c2565b80632d551432116101645780634622ab031161013e5780634622ab03146103a3578063541e771d146103e05780636352211e1461041d57806370a082311461045a576101c2565b80632d551432146103385780633ccfd60b1461036357806342842e0e1461037a576101c2565b8063095ea7b3116101a0578063095ea7b31461026c57806311dd88451461029557806323b872dd146102d257806326449235146102fb576101c2565b806301ffc9a7146101c757806306fdde0314610204578063081812fc1461022f575b600080fd5b3480156101d357600080fd5b506101ee60048036038101906101e991906131b5565b610752565b6040516101fb91906131fd565b60405180910390f35b34801561021057600080fd5b50610219610834565b60405161022691906132b1565b60405180910390f35b34801561023b57600080fd5b5061025660048036038101906102519190613309565b6108c6565b6040516102639190613377565b60405180910390f35b34801561027857600080fd5b50610293600480360381019061028e91906133be565b61094b565b005b3480156102a157600080fd5b506102bc60048036038101906102b79190613463565b610a63565b6040516102c991906132b1565b60405180910390f35b3480156102de57600080fd5b506102f960048036038101906102f491906134b0565b610b16565b005b34801561030757600080fd5b50610322600480360381019061031d9190613633565b610b76565b60405161032f9190613377565b60405180910390f35b34801561034457600080fd5b5061034d610bbf565b60405161035a91906132b1565b60405180910390f35b34801561036f57600080fd5b50610378610c4d565b005b34801561038657600080fd5b506103a1600480360381019061039c91906134b0565b610d13565b005b3480156103af57600080fd5b506103ca60048036038101906103c59190613309565b610d33565b6040516103d791906132b1565b60405180910390f35b3480156103ec57600080fd5b5061040760048036038101906104029190613633565b610dd3565b60405161041491906132b1565b60405180910390f35b34801561042957600080fd5b50610444600480360381019061043f9190613309565b610e89565b6040516104519190613377565b60405180910390f35b34801561046657600080fd5b50610481600480360381019061047c919061367c565b610f3b565b60405161048e91906136b8565b60405180910390f35b3480156104a357600080fd5b506104ac610ff3565b6040516104b991906136f4565b60405180910390f35b3480156104ce57600080fd5b506104d7611019565b6040516104e491906131fd565b60405180910390f35b3480156104f957600080fd5b50610502611071565b60405161050f91906132b1565b60405180910390f35b34801561052457600080fd5b5061053f600480360381019061053a9190613463565b611103565b60405161054c91906131fd565b60405180910390f35b34801561056157600080fd5b5061057c6004803603810190610577919061373b565b6111b7565b005b34801561058a57600080fd5b506105a560048036038101906105a0919061381c565b6111cd565b005b3480156105b357600080fd5b506105ce60048036038101906105c99190613463565b61122f565b6040516105db9190613377565b60405180910390f35b3480156105f057600080fd5b5061060b6004803603810190610606919061389f565b61127a565b005b34801561061957600080fd5b50610622611355565b60405161062f91906132b1565b60405180910390f35b34801561064457600080fd5b5061065f600480360381019061065a9190613309565b6113e3565b60405161066c91906132b1565b60405180910390f35b34801561068157600080fd5b5061069c60048036038101906106979190613920565b611535565b6040516106a991906131fd565b60405180910390f35b6106cc60048036038101906106c79190613960565b6115c9565b005b6106e860048036038101906106e39190613463565b6115ce565b005b3480156106f657600080fd5b506106ff611a4c565b60405161070c9190613acc565b60405180910390f35b34801561072157600080fd5b5061073c60048036038101906107379190613463565b611c2a565b60405161074991906136b8565b60405180910390f35b60007f80ac58cd000000000000000000000000000000000000000000000000000000007bffffffffffffffffffffffffffffffffffffffffffffffffffffffff1916827bffffffffffffffffffffffffffffffffffffffffffffffffffffffff1916148061081d57507f5b5e139f000000000000000000000000000000000000000000000000000000007bffffffffffffffffffffffffffffffffffffffffffffffffffffffff1916827bffffffffffffffffffffffffffffffffffffffffffffffffffffffff1916145b8061082d575061082c82611d6c565b5b9050919050565b60606000805461084390613b1d565b80601f016020809104026020016040519081016040528092919081815260200182805461086f90613b1d565b80156108bc5780601f10610891576101008083540402835291602001916108bc565b820191906000526020600020905b81548152906001019060200180831161089f57829003601f168201915b5050505050905090565b60006108d182611dd6565b610910576040517f08c379a000000000000000000000000000000000000000000000000000000000815260040161090790613bc1565b60405180910390fd5b6004600083815260200190815260200160002060009054906101000a900473ffffffffffffffffffffffffffffffffffffffff169050919050565b600061095682610e89565b90508073ffffffffffffffffffffffffffffffffffffffff168373ffffffffffffffffffffffffffffffffffffffff1614156109c7576040517f08c379a00000000000000000000000000000000000000000000000000000000081526004016109be90613c53565b60405180910390fd5b8073ffffffffffffffffffffffffffffffffffffffff166109e6611e42565b73ffffffffffffffffffffffffffffffffffffffff161480610a155750610a1481610a0f611e42565b611535565b5b610a54576040517f08c379a0000000000000000000000000000000000000000000000000000000008152600401610a4b90613ce5565b60405180910390fd5b610a5e8383611e4a565b505050565b6060600b8383604051610a77929190613d35565b90815260200160405180910390208054610a9090613b1d565b80601f0160208091040260200160405190810160405280929190818152602001828054610abc90613b1d565b8015610b095780601f10610ade57610100808354040283529160200191610b09565b820191906000526020600020905b815481529060010190602001808311610aec57829003601f168201915b5050505050905092915050565b610b27610b21611e42565b82611f03565b610b66576040517f08c379a0000000000000000000000000000000000000000000000000000000008152600401610b5d90613dc0565b60405180910390fd5b610b71838383611fe1565b505050565b600a818051602081018201805184825260208301602085012081835280955050505050506000915054906101000a900473ffffffffffffffffffffffffffffffffffffffff1681565b60088054610bcc90613b1d565b80601f0160208091040260200160405190810160405280929190818152602001828054610bf890613b1d565b8015610c455780601f10610c1a57610100808354040283529160200191610c45565b820191906000526020600020905b815481529060010190602001808311610c2857829003601f168201915b505050505081565b610c55611019565b610c5e57600080fd5b600047905060003373ffffffffffffffffffffffffffffffffffffffff1682604051610c8990613e11565b60006040518083038185875af1925050503d8060008114610cc6576040519150601f19603f3d011682016040523d82523d6000602084013e610ccb565b606091505b5050905080610d0f576040517f08c379a0000000000000000000000000000000000000000000000000000000008152600401610d0690613e72565b60405180910390fd5b5050565b610d2e838383604051806020016040528060008152506111cd565b505050565b600c6020528060005260406000206000915090508054610d5290613b1d565b80601f0160208091040260200160405190810160405280929190818152602001828054610d7e90613b1d565b8015610dcb5780601f10610da057610100808354040283529160200191610dcb565b820191906000526020600020905b815481529060010190602001808311610dae57829003601f168201915b505050505081565b600b818051602081018201805184825260208301602085012081835280955050505050506000915090508054610e0890613b1d565b80601f0160208091040260200160405190810160405280929190818152602001828054610e3490613b1d565b8015610e815780601f10610e5657610100808354040283529160200191610e81565b820191906000526020600020905b815481529060010190602001808311610e6457829003601f168201915b505050505081565b6000806002600084815260200190815260200160002060009054906101000a900473ffffffffffffffffffffffffffffffffffffffff169050600073ffffffffffffffffffffffffffffffffffffffff168173ffffffffffffffffffffffffffffffffffffffff161415610f32576040517f08c379a0000000000000000000000000000000000000000000000000000000008152600401610f2990613f04565b60405180910390fd5b80915050919050565b60008073ffffffffffffffffffffffffffffffffffffffff168273ffffffffffffffffffffffffffffffffffffffff161415610fac576040517f08c379a0000000000000000000000000000000000000000000000000000000008152600401610fa390613f96565b60405180910390fd5b600360008373ffffffffffffffffffffffffffffffffffffffff1673ffffffffffffffffffffffffffffffffffffffff168152602001908152602001600020549050919050565b600960009054906101000a900473ffffffffffffffffffffffffffffffffffffffff1681565b6000600960009054906101000a900473ffffffffffffffffffffffffffffffffffffffff1673ffffffffffffffffffffffffffffffffffffffff163373ffffffffffffffffffffffffffffffffffffffff1614905090565b60606001805461108090613b1d565b80601f01602080910402602001604051908101604052809291908181526020018280546110ac90613b1d565b80156110f95780601f106110ce576101008083540402835291602001916110f9565b820191906000526020600020905b8154815290600101906020018083116110dc57829003601f168201915b5050505050905090565b6000600361115484848080601f016020809104026020016040519081016040528093929190818152602001838380828437600081840152601f19601f82011690508083019250505050505050612248565b101580156111af5750600a6111ac84848080601f016020809104026020016040519081016040528093929190818152602001838380828437600081840152601f19601f82011690508083019250505050505050612248565b11155b905092915050565b6111c96111c2611e42565b83836123fd565b5050565b6111de6111d8611e42565b83611f03565b61121d576040517f08c379a000000000000000000000000000000000000000000000000000000000815260040161121490613dc0565b60405180910390fd5b6112298484848461256a565b50505050565b6000600a8383604051611243929190613d35565b908152602001604051809103902060009054906101000a900473ffffffffffffffffffffffffffffffffffffffff16905092915050565b600a848460405161128c929190613d35565b908152602001604051809103902060009054906101000a900473ffffffffffffffffffffffffffffffffffffffff1673ffffffffffffffffffffffffffffffffffffffff163373ffffffffffffffffffffffffffffffffffffffff161461131f576040517f82b4290000000000000000000000000000000000000000000000000000000000815260040160405180910390fd5b8181600b8686604051611333929190613d35565b9081526020016040518091039020919061134e929190613020565b5050505050565b600e805461136290613b1d565b80601f016020809104026020016040519081016040528092919081815260200182805461138e90613b1d565b80156113db5780601f106113b0576101008083540402835291602001916113db565b820191906000526020600020905b8154815290600101906020018083116113be57829003601f168201915b505050505081565b60606113ee82611dd6565b61142d576040517f08c379a000000000000000000000000000000000000000000000000000000000815260040161142490614028565b60405180910390fd5b600060066000848152602001908152602001600020805461144d90613b1d565b80601f016020809104026020016040519081016040528092919081815260200182805461147990613b1d565b80156114c65780601f1061149b576101008083540402835291602001916114c6565b820191906000526020600020905b8154815290600101906020018083116114a957829003601f168201915b5050505050905060006114d76125c6565b90506000815114156114ed578192505050611530565b60008251111561152257808260405160200161150a929190614079565b60405160208183030381529060405292505050611530565b61152b846125dd565b925050505b919050565b6000600560008473ffffffffffffffffffffffffffffffffffffffff1673ffffffffffffffffffffffffffffffffffffffff16815260200190815260200160002060008373ffffffffffffffffffffffffffffffffffffffff1673ffffffffffffffffffffffffffffffffffffffff16815260200190815260200160002060009054906101000a900460ff16905092915050565b505050565b600073ffffffffffffffffffffffffffffffffffffffff16600a83836040516115f8929190613d35565b908152602001604051809103902060009054906101000a900473ffffffffffffffffffffffffffffffffffffffff1673ffffffffffffffffffffffffffffffffffffffff1614611674576040517f3a81d6fc00000000000000000000000000000000000000000000000000000000815260040160405180910390fd5b61167e8282611103565b6116c15781816040517f7f19f48d0000000000000000000000000000000000000000000000000000000081526004016116b89291906140ca565b60405180910390fd5b60006116cd8383611c2a565b905080341015611712576040517f08c379a00000000000000000000000000000000000000000000000000000000081526004016117099061413a565b60405180910390fd5b60008383600860405160200161172a9392919061423a565b60405160208183030381529060405290506000600f826010604051602001611754939291906142b7565b60405160208183030381529060405290506000611771600d612684565b905060006117c287878080601f016020809104026020016040519081016040528093929190818152602001838380828437600081840152601f19601f82011690508083019250505050505050612248565b905060006117cf82612692565b90506118c3604051806060016040528060318152602001614df96031913989898080601f016020809104026020016040519081016040528093929190818152602001838380828437600081840152601f19601f820116905080830192505050505050506008805461183f90613b1d565b80601f016020809104026020016040519081016040528092919081815260200182805461186b90613b1d565b80156118b85780601f1061188d576101008083540402835291602001916118b8565b820191906000526020600020905b81548152906001019060200180831161189b57829003601f168201915b5050505050866127f3565b60006118f9866118d287612895565b846040516020016118e59392919061446f565b604051602081830303815290604052612895565b905060008160405160200161190e9190614518565b6040516020818303038152906040529050611940604051806060016040528060398152602001614dc060399139612a2d565b61197f6040518060400160405280600e81526020017f46696e616c20746f6b656e55524900000000000000000000000000000000000081525082611cd0565b6119a0604051806060016040528060398152602001614e2a60399139612a2d565b6119aa3386612ac6565b6119b48582612ae4565b33600a8b8b6040516119c7929190613d35565b908152602001604051809103902060006101000a81548173ffffffffffffffffffffffffffffffffffffffff021916908373ffffffffffffffffffffffffffffffffffffffff1602179055508989600c60008881526020019081526020016000209190611a35929190613020565b50611a40600d612b58565b50505050505050505050565b6060611a8c6040518060400160405280601f81526020017f47657474696e6720616c6c206e616d65732066726f6d20636f6e747261637400815250612a2d565b6000611a986007612684565b67ffffffffffffffff811115611ab157611ab0613508565b5b604051908082528060200260200182016040528015611ae457816020015b6060815260200190600190039081611acf5790505b50905060005b611af46007612684565b811015611c2257600c60008281526020019081526020016000208054611b1990613b1d565b80601f0160208091040260200160405190810160405280929190818152602001828054611b4590613b1d565b8015611b925780601f10611b6757610100808354040283529160200191611b92565b820191906000526020600020905b815481529060010190602001808311611b7557829003601f168201915b5050505050828281518110611baa57611ba961453a565b5b6020026020010181905250611c0f6040518060400160405280601781526020017f4e616d6520666f7220746f6b656e20256420697320257300000000000000000081525082848481518110611c0257611c0161453a565b5b6020026020010151612b6e565b8080611c1a90614598565b915050611aea565b508091505090565b600080611c7a84848080601f016020809104026020016040519081016040528093929190818152602001838380828437600081840152601f19601f82011690508083019250505050505050612248565b905060008111611c8957600080fd5b6003811415611ca3576706f05b59d3b20000915050611cca565b6004811415611cbd57670429d069189e0000915050611cca565b67016345785d8a00009150505b92915050565b611d688282604051602401611ce69291906145e1565b6040516020818303038152906040527f4b5c4277000000000000000000000000000000000000000000000000000000007bffffffffffffffffffffffffffffffffffffffffffffffffffffffff19166020820180517bffffffffffffffffffffffffffffffffffffffffffffffffffffffff8381831617835250505050612c0d565b5050565b60007f01ffc9a7000000000000000000000000000000000000000000000000000000007bffffffffffffffffffffffffffffffffffffffffffffffffffffffff1916827bffffffffffffffffffffffffffffffffffffffffffffffffffffffff1916149050919050565b60008073ffffffffffffffffffffffffffffffffffffffff166002600084815260200190815260200160002060009054906101000a900473ffffffffffffffffffffffffffffffffffffffff1673ffffffffffffffffffffffffffffffffffffffff1614159050919050565b600033905090565b816004600083815260200190815260200160002060006101000a81548173ffffffffffffffffffffffffffffffffffffffff021916908373ffffffffffffffffffffffffffffffffffffffff160217905550808273ffffffffffffffffffffffffffffffffffffffff16611ebd83610e89565b73ffffffffffffffffffffffffffffffffffffffff167f8c5be1e5ebec7d5bd14f71427d1e84f3dd0314c0f7b2291e5b200ac8c7c3b92560405160405180910390a45050565b6000611f0e82611dd6565b611f4d576040517f08c379a0000000000000000000000000000000000000000000000000000000008152600401611f449061468a565b60405180910390fd5b6000611f5883610e89565b90508073ffffffffffffffffffffffffffffffffffffffff168473ffffffffffffffffffffffffffffffffffffffff161480611fc757508373ffffffffffffffffffffffffffffffffffffffff16611faf846108c6565b73ffffffffffffffffffffffffffffffffffffffff16145b80611fd85750611fd78185611535565b5b91505092915050565b8273ffffffffffffffffffffffffffffffffffffffff1661200182610e89565b73ffffffffffffffffffffffffffffffffffffffff1614612057576040517f08c379a000000000000000000000000000000000000000000000000000000000815260040161204e9061471c565b60405180910390fd5b600073ffffffffffffffffffffffffffffffffffffffff168273ffffffffffffffffffffffffffffffffffffffff1614156120c7576040517f08c379a00000000000000000000000000000000000000000000000000000000081526004016120be906147ae565b60405180910390fd5b6120d2838383612c36565b6120dd600082611e4a565b6001600360008573ffffffffffffffffffffffffffffffffffffffff1673ffffffffffffffffffffffffffffffffffffffff168152602001908152602001600020600082825461212d91906147ce565b925050819055506001600360008473ffffffffffffffffffffffffffffffffffffffff1673ffffffffffffffffffffffffffffffffffffffff16815260200190815260200160002060008282546121849190614802565b92505081905550816002600083815260200190815260200160002060006101000a81548173ffffffffffffffffffffffffffffffffffffffff021916908373ffffffffffffffffffffffffffffffffffffffff160217905550808273ffffffffffffffffffffffffffffffffffffffff168473ffffffffffffffffffffffffffffffffffffffff167fddf252ad1be2c89b69c2b068fc378daa952ba7f163c4a11628f55a4df523b3ef60405160405180910390a4612243838383612c3b565b505050565b60008060008084519050600092505b808210156123f25760008583815181106122745761227361453a565b5b602001015160f81c60f81b9050608060f81b817effffffffffffffffffffffffffffffffffffffffffffffffffffffffffffff191610156122c3576001836122bc9190614802565b92506123de565b60e060f81b817effffffffffffffffffffffffffffffffffffffffffffffffffffffffffffff19161015612305576002836122fe9190614802565b92506123dd565b60f060f81b817effffffffffffffffffffffffffffffffffffffffffffffffffffffffffffff19161015612347576003836123409190614802565b92506123dc565b60f8801b817effffffffffffffffffffffffffffffffffffffffffffffffffffffffffffff19161015612388576004836123819190614802565b92506123db565b60fc60f81b817effffffffffffffffffffffffffffffffffffffffffffffffffffffffffffff191610156123ca576005836123c39190614802565b92506123da565b6006836123d79190614802565b92505b5b5b5b5b5082806123ea90614598565b935050612257565b829350505050919050565b8173ffffffffffffffffffffffffffffffffffffffff168373ffffffffffffffffffffffffffffffffffffffff16141561246c576040517f08c379a0000000000000000000000000000000000000000000000000000000008152600401612463906148a4565b60405180910390fd5b80600560008573ffffffffffffffffffffffffffffffffffffffff1673ffffffffffffffffffffffffffffffffffffffff16815260200190815260200160002060008473ffffffffffffffffffffffffffffffffffffffff1673ffffffffffffffffffffffffffffffffffffffff16815260200190815260200160002060006101000a81548160ff0219169083151502179055508173ffffffffffffffffffffffffffffffffffffffff168373ffffffffffffffffffffffffffffffffffffffff167f17307eab39ab6107e8899845ad3d59bd9653f200f220920489ca2b5937696c318360405161255d91906131fd565b60405180910390a3505050565b612575848484611fe1565b61258184848484612c40565b6125c0576040517f08c379a00000000000000000000000000000000000000000000000000000000081526004016125b790614936565b60405180910390fd5b50505050565b606060405180602001604052806000815250905090565b60606125e882611dd6565b612627576040517f08c379a000000000000000000000000000000000000000000000000000000000815260040161261e906149c8565b60405180910390fd5b60006126316125c6565b90506000815111612651576040518060200160405280600081525061267c565b8061265b84612692565b60405160200161266c929190614079565b6040516020818303038152906040525b915050919050565b600081600001549050919050565b606060008214156126da576040518060400160405280600181526020017f300000000000000000000000000000000000000000000000000000000000000081525090506127ee565b600082905060005b6000821461270c5780806126f590614598565b915050600a826127059190614a17565b91506126e2565b60008167ffffffffffffffff81111561272857612727613508565b5b6040519080825280601f01601f19166020018201604052801561275a5781602001600182028036833780820191505090505b5090505b600085146127e75760018261277391906147ce565b9150600a856127829190614a48565b603061278e9190614802565b60f81b8183815181106127a4576127a361453a565b5b60200101907effffffffffffffffffffffffffffffffffffffffffffffffffffffffffffff1916908160001a905350600a856127e09190614a17565b945061275e565b8093505050505b919050565b61288f8484848460405160240161280d9493929190614a79565b6040516020818303038152906040527f9fd009f5000000000000000000000000000000000000000000000000000000007bffffffffffffffffffffffffffffffffffffffffffffffffffffffff19166020820180517bffffffffffffffffffffffffffffffffffffffffffffffffffffffff8381831617835250505050612c0d565b50505050565b606060008251905060008114156128be5760405180602001604052806000815250915050612a28565b600060036002836128cf9190614802565b6128d99190614a17565b60046128e59190614ad3565b905060006020826128f69190614802565b67ffffffffffffffff81111561290f5761290e613508565b5b6040519080825280601f01601f1916602001820160405280156129415781602001600182028036833780820191505090505b5090506000604051806060016040528060408152602001614e63604091399050600181016020830160005b868110156129e55760038101905062ffffff818a015116603f8160121c168401518060081b905060ff603f83600c1c1686015116810190508060081b905060ff603f8360061c1686015116810190508060081b905060ff603f831686015116810190508060e01b9050808452600484019350505061296c565b5060038606600181146129ff5760028114612a0f57612a1a565b613d3d60f01b6002830352612a1a565b603d60f81b60018303525b508484525050819450505050505b919050565b612ac381604051602401612a4191906132b1565b6040516020818303038152906040527f41304fac000000000000000000000000000000000000000000000000000000007bffffffffffffffffffffffffffffffffffffffffffffffffffffffff19166020820180517bffffffffffffffffffffffffffffffffffffffffffffffffffffffff8381831617835250505050612c0d565b50565b612ae0828260405180602001604052806000815250612dc8565b5050565b612aed82611dd6565b612b2c576040517f08c379a0000000000000000000000000000000000000000000000000000000008152600401612b2390614b9f565b60405180910390fd5b80600660008481526020019081526020016000209080519060200190612b539291906130a6565b505050565b6001816000016000828254019250508190555050565b612c08838383604051602401612b8693929190614bbf565b6040516020818303038152906040527fa3f5c739000000000000000000000000000000000000000000000000000000007bffffffffffffffffffffffffffffffffffffffffffffffffffffffff19166020820180517bffffffffffffffffffffffffffffffffffffffffffffffffffffffff8381831617835250505050612c0d565b505050565b60008151905060006a636f6e736f6c652e6c6f679050602083016000808483855afa5050505050565b505050565b505050565b6000612c618473ffffffffffffffffffffffffffffffffffffffff16612e23565b15612dbb578373ffffffffffffffffffffffffffffffffffffffff1663150b7a02612c8a611e42565b8786866040518563ffffffff1660e01b8152600401612cac9493929190614c59565b6020604051808303816000875af1925050508015612ce857506040513d601f19601f82011682018060405250810190612ce59190614cba565b60015b612d6b573d8060008114612d18576040519150601f19603f3d011682016040523d82523d6000602084013e612d1d565b606091505b50600081511415612d63576040517f08c379a0000000000000000000000000000000000000000000000000000000008152600401612d5a90614936565b60405180910390fd5b805181602001fd5b63150b7a0260e01b7bffffffffffffffffffffffffffffffffffffffffffffffffffffffff1916817bffffffffffffffffffffffffffffffffffffffffffffffffffffffff191614915050612dc0565b600190505b949350505050565b612dd28383612e46565b612ddf6000848484612c40565b612e1e576040517f08c379a0000000000000000000000000000000000000000000000000000000008152600401612e1590614936565b60405180910390fd5b505050565b6000808273ffffffffffffffffffffffffffffffffffffffff163b119050919050565b600073ffffffffffffffffffffffffffffffffffffffff168273ffffffffffffffffffffffffffffffffffffffff161415612eb6576040517f08c379a0000000000000000000000000000000000000000000000000000000008152600401612ead90614d33565b60405180910390fd5b612ebf81611dd6565b15612eff576040517f08c379a0000000000000000000000000000000000000000000000000000000008152600401612ef690614d9f565b60405180910390fd5b612f0b60008383612c36565b6001600360008473ffffffffffffffffffffffffffffffffffffffff1673ffffffffffffffffffffffffffffffffffffffff1681526020019081526020016000206000828254612f5b9190614802565b92505081905550816002600083815260200190815260200160002060006101000a81548173ffffffffffffffffffffffffffffffffffffffff021916908373ffffffffffffffffffffffffffffffffffffffff160217905550808273ffffffffffffffffffffffffffffffffffffffff16600073ffffffffffffffffffffffffffffffffffffffff167fddf252ad1be2c89b69c2b068fc378daa952ba7f163c4a11628f55a4df523b3ef60405160405180910390a461301c60008383612c3b565b5050565b82805461302c90613b1d565b90600052602060002090601f01602090048101928261304e5760008555613095565b82601f1061306757803560ff1916838001178555613095565b82800160010185558215613095579182015b82811115613094578235825591602001919060010190613079565b5b5090506130a2919061312c565b5090565b8280546130b290613b1d565b90600052602060002090601f0160209004810192826130d4576000855561311b565b82601f106130ed57805160ff191683800117855561311b565b8280016001018555821561311b579182015b8281111561311a5782518255916020019190600101906130ff565b5b509050613128919061312c565b5090565b5b8082111561314557600081600090555060010161312d565b5090565b6000604051905090565b600080fd5b600080fd5b60007fffffffff0000000000000000000000000000000000000000000000000000000082169050919050565b6131928161315d565b811461319d57600080fd5b50565b6000813590506131af81613189565b92915050565b6000602082840312156131cb576131ca613153565b5b60006131d9848285016131a0565b91505092915050565b60008115159050919050565b6131f7816131e2565b82525050565b600060208201905061321260008301846131ee565b92915050565b600081519050919050565b600082825260208201905092915050565b60005b83811015613252578082015181840152602081019050613237565b83811115613261576000848401525b50505050565b6000601f19601f8301169050919050565b600061328382613218565b61328d8185613223565b935061329d818560208601613234565b6132a681613267565b840191505092915050565b600060208201905081810360008301526132cb8184613278565b905092915050565b6000819050919050565b6132e6816132d3565b81146132f157600080fd5b50565b600081359050613303816132dd565b92915050565b60006020828403121561331f5761331e613153565b5b600061332d848285016132f4565b91505092915050565b600073ffffffffffffffffffffffffffffffffffffffff82169050919050565b600061336182613336565b9050919050565b61337181613356565b82525050565b600060208201905061338c6000830184613368565b92915050565b61339b81613356565b81146133a657600080fd5b50565b6000813590506133b881613392565b92915050565b600080604083850312156133d5576133d4613153565b5b60006133e3858286016133a9565b92505060206133f4858286016132f4565b9150509250929050565b600080fd5b600080fd5b600080fd5b60008083601f840112613423576134226133fe565b5b8235905067ffffffffffffffff8111156134405761343f613403565b5b60208301915083600182028301111561345c5761345b613408565b5b9250929050565b6000806020838503121561347a57613479613153565b5b600083013567ffffffffffffffff81111561349857613497613158565b5b6134a48582860161340d565b92509250509250929050565b6000806000606084860312156134c9576134c8613153565b5b60006134d7868287016133a9565b93505060206134e8868287016133a9565b92505060406134f9868287016132f4565b9150509250925092565b600080fd5b7f4e487b7100000000000000000000000000000000000000000000000000000000600052604160045260246000fd5b61354082613267565b810181811067ffffffffffffffff8211171561355f5761355e613508565b5b80604052505050565b6000613572613149565b905061357e8282613537565b919050565b600067ffffffffffffffff82111561359e5761359d613508565b5b6135a782613267565b9050602081019050919050565b82818337600083830152505050565b60006135d66135d184613583565b613568565b9050828152602081018484840111156135f2576135f1613503565b5b6135fd8482856135b4565b509392505050565b600082601f83011261361a576136196133fe565b5b813561362a8482602086016135c3565b91505092915050565b60006020828403121561364957613648613153565b5b600082013567ffffffffffffffff81111561366757613666613158565b5b61367384828501613605565b91505092915050565b60006020828403121561369257613691613153565b5b60006136a0848285016133a9565b91505092915050565b6136b2816132d3565b82525050565b60006020820190506136cd60008301846136a9565b92915050565b60006136de82613336565b9050919050565b6136ee816136d3565b82525050565b600060208201905061370960008301846136e5565b92915050565b613718816131e2565b811461372357600080fd5b50565b6000813590506137358161370f565b92915050565b6000806040838503121561375257613751613153565b5b6000613760858286016133a9565b925050602061377185828601613726565b9150509250929050565b600067ffffffffffffffff82111561379657613795613508565b5b61379f82613267565b9050602081019050919050565b60006137bf6137ba8461377b565b613568565b9050828152602081018484840111156137db576137da613503565b5b6137e68482856135b4565b509392505050565b600082601f830112613803576138026133fe565b5b81356138138482602086016137ac565b91505092915050565b6000806000806080858703121561383657613835613153565b5b6000613844878288016133a9565b9450506020613855878288016133a9565b9350506040613866878288016132f4565b925050606085013567ffffffffffffffff81111561388757613886613158565b5b613893878288016137ee565b91505092959194509250565b600080600080604085870312156138b9576138b8613153565b5b600085013567ffffffffffffffff8111156138d7576138d6613158565b5b6138e38782880161340d565b9450945050602085013567ffffffffffffffff81111561390657613905613158565b5b6139128782880161340d565b925092505092959194509250565b6000806040838503121561393757613936613153565b5b6000613945858286016133a9565b9250506020613956858286016133a9565b9150509250929050565b60008060006040848603121561397957613978613153565b5b600084013567ffffffffffffffff81111561399757613996613158565b5b6139a38682870161340d565b935093505060206139b6868287016132f4565b9150509250925092565b600081519050919050565b600082825260208201905092915050565b6000819050602082019050919050565b600082825260208201905092915050565b6000613a0882613218565b613a1281856139ec565b9350613a22818560208601613234565b613a2b81613267565b840191505092915050565b6000613a4283836139fd565b905092915050565b6000602082019050919050565b6000613a62826139c0565b613a6c81856139cb565b935083602082028501613a7e856139dc565b8060005b85811015613aba5784840389528151613a9b8582613a36565b9450613aa683613a4a565b925060208a01995050600181019050613a82565b50829750879550505050505092915050565b60006020820190508181036000830152613ae68184613a57565b905092915050565b7f4e487b7100000000000000000000000000000000000000000000000000000000600052602260045260246000fd5b60006002820490506001821680613b3557607f821691505b60208210811415613b4957613b48613aee565b5b50919050565b7f4552433732313a20617070726f76656420717565727920666f72206e6f6e657860008201527f697374656e7420746f6b656e0000000000000000000000000000000000000000602082015250565b6000613bab602c83613223565b9150613bb682613b4f565b604082019050919050565b60006020820190508181036000830152613bda81613b9e565b9050919050565b7f4552433732313a20617070726f76616c20746f2063757272656e74206f776e6560008201527f7200000000000000000000000000000000000000000000000000000000000000602082015250565b6000613c3d602183613223565b9150613c4882613be1565b604082019050919050565b60006020820190508181036000830152613c6c81613c30565b9050919050565b7f4552433732313a20617070726f76652063616c6c6572206973206e6f74206f7760008201527f6e6572206e6f7220617070726f76656420666f7220616c6c0000000000000000602082015250565b6000613ccf603883613223565b9150613cda82613c73565b604082019050919050565b60006020820190508181036000830152613cfe81613cc2565b9050919050565b600081905092915050565b6000613d1c8385613d05565b9350613d298385846135b4565b82840190509392505050565b6000613d42828486613d10565b91508190509392505050565b7f4552433732313a207472616e736665722063616c6c6572206973206e6f74206f60008201527f776e6572206e6f7220617070726f766564000000000000000000000000000000602082015250565b6000613daa603183613223565b9150613db582613d4e565b604082019050919050565b60006020820190508181036000830152613dd981613d9d565b9050919050565b600081905092915050565b50565b6000613dfb600083613de0565b9150613e0682613deb565b600082019050919050565b6000613e1c82613dee565b9150819050919050565b7f4661696c656420746f207769746864726177204d617469630000000000000000600082015250565b6000613e5c601883613223565b9150613e6782613e26565b602082019050919050565b60006020820190508181036000830152613e8b81613e4f565b9050919050565b7f4552433732313a206f776e657220717565727920666f72206e6f6e657869737460008201527f656e7420746f6b656e0000000000000000000000000000000000000000000000602082015250565b6000613eee602983613223565b9150613ef982613e92565b604082019050919050565b60006020820190508181036000830152613f1d81613ee1565b9050919050565b7f4552433732313a2062616c616e636520717565727920666f7220746865207a6560008201527f726f206164647265737300000000000000000000000000000000000000000000602082015250565b6000613f80602a83613223565b9150613f8b82613f24565b604082019050919050565b60006020820190508181036000830152613faf81613f73565b9050919050565b7f45524337323155524953746f726167653a2055524920717565727920666f722060008201527f6e6f6e6578697374656e7420746f6b656e000000000000000000000000000000602082015250565b6000614012603183613223565b915061401d82613fb6565b604082019050919050565b6000602082019050818103600083015261404181614005565b9050919050565b600061405382613218565b61405d8185613d05565b935061406d818560208601613234565b80840191505092915050565b60006140858285614048565b91506140918284614048565b91508190509392505050565b60006140a98385613223565b93506140b68385846135b4565b6140bf83613267565b840190509392505050565b600060208201905081810360008301526140e581848661409d565b90509392505050565b7f4e6f7420656e6f756768204d6174696320706169640000000000000000000000600082015250565b6000614124601583613223565b915061412f826140ee565b602082019050919050565b6000602082019050818103600083015261415381614117565b9050919050565b7f2e00000000000000000000000000000000000000000000000000000000000000600082015250565b6000614190600183613d05565b915061419b8261415a565b600182019050919050565b60008190508160005260206000209050919050565b600081546141c881613b1d565b6141d28186613d05565b945060018216600081146141ed57600181146141fe57614231565b60ff19831686528186019350614231565b614207856141a6565b60005b838110156142295781548189015260018201915060208101905061420a565b838801955050505b50505092915050565b6000614247828587613d10565b915061425282614183565b915061425e82846141bb565b9150819050949350505050565b7ff09f94a500000000000000000000000000000000000000000000000000000000600082015250565b60006142a1600483613d05565b91506142ac8261426b565b600482019050919050565b60006142c382866141bb565b91506142cf8285614048565b91506142da82614294565b91506142e682846141bb565b9150819050949350505050565b7f7b226e616d65223a202200000000000000000000000000000000000000000000600082015250565b6000614329600a83613d05565b9150614334826142f3565b600a82019050919050565b7f222c20226465736372697074696f6e223a20224120646f6d61696e206f6e207460008201527f6865204c6974206e616d652073657276696365222c2022696d616765223a202260208201527f646174613a696d6167652f7376672b786d6c3b6261736536342c000000000000604082015250565b60006143c1605a83613d05565b91506143cc8261433f565b605a82019050919050565b7f222c226c656e677468223a220000000000000000000000000000000000000000600082015250565b600061440d600c83613d05565b9150614418826143d7565b600c82019050919050565b7f227d000000000000000000000000000000000000000000000000000000000000600082015250565b6000614459600283613d05565b915061446482614423565b600282019050919050565b600061447a8261431c565b91506144868286614048565b9150614491826143b4565b915061449d8285614048565b91506144a882614400565b91506144b48284614048565b91506144bf8261444c565b9150819050949350505050565b7f646174613a6170706c69636174696f6e2f6a736f6e3b6261736536342c000000600082015250565b6000614502601d83613d05565b915061450d826144cc565b601d82019050919050565b6000614523826144f5565b915061452f8284614048565b915081905092915050565b7f4e487b7100000000000000000000000000000000000000000000000000000000600052603260045260246000fd5b7f4e487b7100000000000000000000000000000000000000000000000000000000600052601160045260246000fd5b60006145a3826132d3565b91507fffffffffffffffffffffffffffffffffffffffffffffffffffffffffffffffff8214156145d6576145d5614569565b5b600182019050919050565b600060408201905081810360008301526145fb8185613278565b9050818103602083015261460f8184613278565b90509392505050565b7f4552433732313a206f70657261746f7220717565727920666f72206e6f6e657860008201527f697374656e7420746f6b656e0000000000000000000000000000000000000000602082015250565b6000614674602c83613223565b915061467f82614618565b604082019050919050565b600060208201905081810360008301526146a381614667565b9050919050565b7f4552433732313a207472616e736665722066726f6d20696e636f72726563742060008201527f6f776e6572000000000000000000000000000000000000000000000000000000602082015250565b6000614706602583613223565b9150614711826146aa565b604082019050919050565b60006020820190508181036000830152614735816146f9565b9050919050565b7f4552433732313a207472616e7366657220746f20746865207a65726f2061646460008201527f7265737300000000000000000000000000000000000000000000000000000000602082015250565b6000614798602483613223565b91506147a38261473c565b604082019050919050565b600060208201905081810360008301526147c78161478b565b9050919050565b60006147d9826132d3565b91506147e4836132d3565b9250828210156147f7576147f6614569565b5b828203905092915050565b600061480d826132d3565b9150614818836132d3565b9250827fffffffffffffffffffffffffffffffffffffffffffffffffffffffffffffffff0382111561484d5761484c614569565b5b828201905092915050565b7f4552433732313a20617070726f766520746f2063616c6c657200000000000000600082015250565b600061488e601983613223565b915061489982614858565b602082019050919050565b600060208201905081810360008301526148bd81614881565b9050919050565b7f4552433732313a207472616e7366657220746f206e6f6e20455243373231526560008201527f63656976657220696d706c656d656e7465720000000000000000000000000000602082015250565b6000614920603283613223565b915061492b826148c4565b604082019050919050565b6000602082019050818103600083015261494f81614913565b9050919050565b7f4552433732314d657461646174613a2055524920717565727920666f72206e6f60008201527f6e6578697374656e7420746f6b656e0000000000000000000000000000000000602082015250565b60006149b2602f83613223565b91506149bd82614956565b604082019050919050565b600060208201905081810360008301526149e1816149a5565b9050919050565b7f4e487b7100000000000000000000000000000000000000000000000000000000600052601260045260246000fd5b6000614a22826132d3565b9150614a2d836132d3565b925082614a3d57614a3c6149e8565b5b828204905092915050565b6000614a53826132d3565b9150614a5e836132d3565b925082614a6e57614a6d6149e8565b5b828206905092915050565b60006080820190508181036000830152614a938187613278565b90508181036020830152614aa78186613278565b90508181036040830152614abb8185613278565b9050614aca60608301846136a9565b95945050505050565b6000614ade826132d3565b9150614ae9836132d3565b9250817fffffffffffffffffffffffffffffffffffffffffffffffffffffffffffffffff0483118215151615614b2257614b21614569565b5b828202905092915050565b7f45524337323155524953746f726167653a2055524920736574206f66206e6f6e60008201527f6578697374656e7420746f6b656e000000000000000000000000000000000000602082015250565b6000614b89602e83613223565b9150614b9482614b2d565b604082019050919050565b60006020820190508181036000830152614bb881614b7c565b9050919050565b60006060820190508181036000830152614bd98186613278565b9050614be860208301856136a9565b8181036040830152614bfa8184613278565b9050949350505050565b600081519050919050565b600082825260208201905092915050565b6000614c2b82614c04565b614c358185614c0f565b9350614c45818560208601613234565b614c4e81613267565b840191505092915050565b6000608082019050614c6e6000830187613368565b614c7b6020830186613368565b614c8860408301856136a9565b8181036060830152614c9a8184614c20565b905095945050505050565b600081519050614cb481613189565b92915050565b600060208284031215614cd057614ccf613153565b5b6000614cde84828501614ca5565b91505092915050565b7f4552433732313a206d696e7420746f20746865207a65726f2061646472657373600082015250565b6000614d1d602083613223565b9150614d2882614ce7565b602082019050919050565b60006020820190508181036000830152614d4c81614d10565b9050919050565b7f4552433732313a20746f6b656e20616c7265616479206d696e74656400000000600082015250565b6000614d89601c83613223565b9150614d9482614d53565b602082019050919050565b60006020820190508181036000830152614db881614d7c565b905091905056fe0a2d2d2d2d2d2d2d2d2d2d2d2d2d2d2d2d2d2d2d2d2d2d2d2d2d2d2d2d2d2d2d2d2d2d2d2d2d2d2d2d2d2d2d2d2d2d2d2d2d2d2d2d2d2d2d2d5265676973746572696e672025732e2573206f6e2074686520636f6e7472616374207769746820746f6b656e49442025642d2d2d2d2d2d2d2d2d2d2d2d2d2d2d2d2d2d2d2d2d2d2d2d2d2d2d2d2d2d2d2d2d2d2d2d2d2d2d2d2d2d2d2d2d2d2d2d2d2d2d2d2d2d2d2d0a4142434445464748494a4b4c4d4e4f505152535455565758595a6162636465666768696a6b6c6d6e6f707172737475767778797a303132333435363738392b2fa26469706673582212203c50adf44d144c987ef747a88c11cf0dae44db87abd35d29b4fd9417ee54e1a464736f6c634300080a00333c73766720786d6c6e733d22687474703a2f2f7777772e77332e6f72672f323030302f737667222077696474683d2232373022206865696768743d22323730222066696c6c3d226e6f6e65223e3c706174682066696c6c3d2275726c282361292220643d224d302030683237307632373048307a222f3e3c646566733e3c66696c7465722069643d22622220636f6c6f722d696e746572706f6c6174696f6e2d66696c746572733d2273524742222066696c746572556e6974733d227573657253706163654f6e55736522206865696768743d22323730222077696474683d22323730223e3c666544726f70536861646f772064783d2230222064793d22312220737464446576696174696f6e3d22322220666c6f6f642d6f7061636974793d222e323235222077696474683d223230302522206865696768743d2232303025222f3e3c2f66696c7465723e3c2f646566733e3c7061746820643d224d37322e3836332034322e39343961342e33383220342e3338322030203020302d342e33393420306c2d31302e30383120362e3033322d362e383520332e3933342d31302e30383120362e30333261342e33383220342e3338322030203020312d342e33393420306c2d382e3031332d342e37323161342e353220342e35322030203020312d312e3538392d312e36313620342e353420342e35342030203020312d2e3630382d322e313837762d392e333161342e323720342e3237203020302031202e3537322d322e32303820342e323520342e323520302030203120312e3632352d312e3539356c372e3838342d342e353961342e33383220342e33383220302030203120342e33393420306c372e38383420342e353961342e353220342e353220302030203120312e35383920312e36313620342e353420342e3534203020302031202e36303820322e31383776362e3033326c362e38352d342e303635762d362e30333261342e323720342e32372030203020302d2e3537322d322e32303820342e323520342e32352030203020302d312e3632352d312e3539354c34312e3435362032342e353961342e33383220342e3338322030203020302d342e33393420306c2d31342e38363420382e36353561342e323520342e32352030203020302d312e36323520312e35393520342e32373320342e3237332030203020302d2e35373220322e3230387631372e34343161342e323720342e3237203020302030202e35373220322e32303820342e323520342e323520302030203020312e36323520312e3539356c31342e38363420382e36353561342e33383220342e33383220302030203020342e33393420306c31302e3038312d352e39303120362e38352d342e3036352031302e3038312d352e39303161342e33383220342e33383220302030203120342e33393420306c372e38383420342e353961342e353220342e353220302030203120312e35383920312e36313620342e353420342e3534203020302031202e36303820322e31383776392e33313161342e323720342e32372030203020312d2e35373220322e32303820342e323520342e32352030203020312d312e36323520312e3539356c2d372e38383420342e37323161342e33383220342e3338322030203020312d342e33393420306c2d372e3838342d342e353961342e353220342e35322030203020312d312e3538392d312e36313620342e353320342e35332030203020312d2e3630382d322e313837762d362e3033326c2d362e383520342e30363576362e30333261342e323720342e3237203020302030202e35373220322e32303820342e323520342e323520302030203020312e36323520312e3539356c31342e38363420382e36353561342e33383220342e33383220302030203020342e33393420306c31342e3836342d382e36353561342e35343520342e35343520302030203020322e3139382d332e3830335635352e35333861342e323720342e32372030203020302d2e3537322d322e32303820342e323520342e32352030203020302d312e3632352d312e3539356c2d31342e3939332d382e3738367a222066696c6c3d2223666630222f3e3c646566733e3c6c696e6561724772616469656e742069643d2261222078313d2230222079313d2230222078323d22323730222079323d2232373022206772616469656e74556e6974733d227573657253706163654f6e557365223e3c73746f702073746f702d636f6c6f723d2223464630222f3e3c73746f70206f66667365743d2231222073746f702d636f6c6f723d22726564222073746f702d6f7061636974793d222e3939222f3e3c2f6c696e6561724772616469656e743e3c2f646566733e3c7465787420783d2233322e352220793d223233312220666f6e742d73697a653d223237222066696c6c3d22726564222066696c7465723d2275726c282362292220666f6e742d66616d696c793d22506c7573204a616b617274612053616e732c44656a6156752053616e732c4e6f746f20436f6c6f7220456d6f6a692c4170706c6520436f6c6f7220456d6f6a692c73616e732d73657269662220666f6e742d7765696768743d22626f6c64223e",
  "linkReferences": {},
  "deployedLinkReferences": {}
}