{
  "_format": "hh-sol-artifact-1",
  "contractName": "LaunchDomains",
  "sourceName": "contracts/LaunchDomains.sol",
  "abi": [
    {
      "inputs": [
        {
          "internalType": "string",
          "name": "_tld",
          "type": "string"
        }
      ],
      "stateMutability": "payable",
      "type": "constructor"
    },
    {
      "anonymous": false,
      "inputs": [
        {
          "indexed": true,
          "internalType": "address",
          "name": "owner",
          "type": "address"
        },
        {
          "indexed": true,
          "internalType": "address",
          "name": "approved",
          "type": "address"
        },
        {
          "indexed": true,
          "internalType": "uint256",
          "name": "tokenId",
          "type": "uint256"
        }
      ],
      "name": "Approval",
      "type": "event"
    },
    {
      "anonymous": false,
      "inputs": [
        {
          "indexed": true,
          "internalType": "address",
          "name": "owner",
          "type": "address"
        },
        {
          "indexed": true,
          "internalType": "address",
          "name": "operator",
          "type": "address"
        },
        {
          "indexed": false,
          "internalType": "bool",
          "name": "approved",
          "type": "bool"
        }
      ],
      "name": "ApprovalForAll",
      "type": "event"
    },
    {
      "anonymous": false,
      "inputs": [
        {
          "indexed": true,
          "internalType": "address",
          "name": "from",
          "type": "address"
        },
        {
          "indexed": true,
          "internalType": "address",
          "name": "to",
          "type": "address"
        },
        {
          "indexed": true,
          "internalType": "uint256",
          "name": "tokenId",
          "type": "uint256"
        }
      ],
      "name": "Transfer",
      "type": "event"
    },
    {
      "inputs": [
        {
          "internalType": "address",
          "name": "to",
          "type": "address"
        },
        {
          "internalType": "uint256",
          "name": "tokenId",
          "type": "uint256"
        }
      ],
      "name": "approve",
      "outputs": [],
      "stateMutability": "nonpayable",
      "type": "function"
    },
    {
      "inputs": [
        {
          "internalType": "address",
          "name": "owner",
          "type": "address"
        }
      ],
      "name": "balanceOf",
      "outputs": [
        {
          "internalType": "uint256",
          "name": "",
          "type": "uint256"
        }
      ],
      "stateMutability": "view",
      "type": "function"
    },
    {
      "inputs": [],
      "name": "checkLaunchDomainActive",
      "outputs": [
        {
          "internalType": "bool",
          "name": "",
          "type": "bool"
        }
      ],
      "stateMutability": "view",
      "type": "function"
    },
    {
      "inputs": [
        {
          "internalType": "string",
          "name": "",
          "type": "string"
        }
      ],
      "name": "domains",
      "outputs": [
        {
          "internalType": "address",
          "name": "",
          "type": "address"
        }
      ],
      "stateMutability": "view",
      "type": "function"
    },
    {
      "inputs": [
        {
          "internalType": "string",
          "name": "name",
          "type": "string"
        }
      ],
      "name": "getAddress",
      "outputs": [
        {
          "internalType": "address",
          "name": "",
          "type": "address"
        }
      ],
      "stateMutability": "view",
      "type": "function"
    },
    {
      "inputs": [
        {
          "internalType": "uint256",
          "name": "tokenId",
          "type": "uint256"
        }
      ],
      "name": "getApproved",
      "outputs": [
        {
          "internalType": "address",
          "name": "",
          "type": "address"
        }
      ],
      "stateMutability": "view",
      "type": "function"
    },
    {
      "inputs": [
        {
          "internalType": "string",
          "name": "name",
          "type": "string"
        }
      ],
      "name": "getRecord",
      "outputs": [
        {
          "internalType": "string",
          "name": "",
          "type": "string"
        }
      ],
      "stateMutability": "view",
      "type": "function"
    },
    {
      "inputs": [
        {
          "internalType": "address",
          "name": "owner",
          "type": "address"
        },
        {
          "internalType": "address",
          "name": "operator",
          "type": "address"
        }
      ],
      "name": "isApprovedForAll",
      "outputs": [
        {
          "internalType": "bool",
          "name": "",
          "type": "bool"
        }
      ],
      "stateMutability": "view",
      "type": "function"
    },
    {
      "inputs": [
        {
          "internalType": "string",
          "name": "",
          "type": "string"
        }
      ],
      "name": "launchDomainNames",
      "outputs": [
        {
          "internalType": "address",
          "name": "",
          "type": "address"
        }
      ],
      "stateMutability": "view",
      "type": "function"
    },
    {
      "inputs": [
        {
          "internalType": "address",
          "name": "",
          "type": "address"
        }
      ],
      "name": "launchDomainStatus",
      "outputs": [
        {
          "internalType": "string",
          "name": "name",
          "type": "string"
        },
        {
          "internalType": "uint256",
          "name": "deadline",
          "type": "uint256"
        },
        {
          "internalType": "uint256",
          "name": "initiatedTime",
          "type": "uint256"
        },
        {
          "internalType": "bool",
          "name": "active",
          "type": "bool"
        }
      ],
      "stateMutability": "view",
      "type": "function"
    },
    {
      "inputs": [
        {
          "internalType": "uint256",
          "name": "",
          "type": "uint256"
        }
      ],
      "name": "launchDomains",
      "outputs": [
        {
          "internalType": "string",
          "name": "name",
          "type": "string"
        },
        {
          "internalType": "uint256",
          "name": "deadline",
          "type": "uint256"
        },
        {
          "internalType": "uint256",
          "name": "initiatedTime",
          "type": "uint256"
        },
        {
          "internalType": "bool",
          "name": "active",
          "type": "bool"
        }
      ],
      "stateMutability": "view",
      "type": "function"
    },
    {
      "inputs": [],
      "name": "name",
      "outputs": [
        {
          "internalType": "string",
          "name": "",
          "type": "string"
        }
      ],
      "stateMutability": "view",
      "type": "function"
    },
    {
      "inputs": [
        {
          "internalType": "uint256",
          "name": "tokenId",
          "type": "uint256"
        }
      ],
      "name": "ownerOf",
      "outputs": [
        {
          "internalType": "address",
          "name": "",
          "type": "address"
        }
      ],
      "stateMutability": "view",
      "type": "function"
    },
    {
      "inputs": [
        {
          "internalType": "string",
          "name": "name",
          "type": "string"
        }
      ],
      "name": "price",
      "outputs": [
        {
          "internalType": "uint256",
          "name": "",
          "type": "uint256"
        }
      ],
      "stateMutability": "pure",
      "type": "function"
    },
    {
      "inputs": [
        {
          "internalType": "string",
          "name": "",
          "type": "string"
        }
      ],
      "name": "records",
      "outputs": [
        {
          "internalType": "string",
          "name": "",
          "type": "string"
        }
      ],
      "stateMutability": "view",
      "type": "function"
    },
    {
      "inputs": [
        {
          "internalType": "string",
          "name": "name",
          "type": "string"
        }
      ],
      "name": "register",
      "outputs": [],
      "stateMutability": "payable",
      "type": "function"
    },
    {
      "inputs": [
        {
          "internalType": "string",
          "name": "name",
          "type": "string"
        },
        {
          "internalType": "uint256",
          "name": "numberOfDays",
          "type": "uint256"
        }
      ],
      "name": "registerLaunchDomain",
      "outputs": [],
      "stateMutability": "payable",
      "type": "function"
    },
    {
      "inputs": [
        {
          "internalType": "string",
          "name": "name",
          "type": "string"
        },
        {
          "internalType": "bool",
          "name": "userForceDelete",
          "type": "bool"
        }
      ],
      "name": "removeInactiveLaunchDomains",
      "outputs": [],
      "stateMutability": "nonpayable",
      "type": "function"
    },
    {
      "inputs": [
        {
          "internalType": "address",
          "name": "from",
          "type": "address"
        },
        {
          "internalType": "address",
          "name": "to",
          "type": "address"
        },
        {
          "internalType": "uint256",
          "name": "tokenId",
          "type": "uint256"
        }
      ],
      "name": "safeTransferFrom",
      "outputs": [],
      "stateMutability": "nonpayable",
      "type": "function"
    },
    {
      "inputs": [
        {
          "internalType": "address",
          "name": "from",
          "type": "address"
        },
        {
          "internalType": "address",
          "name": "to",
          "type": "address"
        },
        {
          "internalType": "uint256",
          "name": "tokenId",
          "type": "uint256"
        },
        {
          "internalType": "bytes",
          "name": "_data",
          "type": "bytes"
        }
      ],
      "name": "safeTransferFrom",
      "outputs": [],
      "stateMutability": "nonpayable",
      "type": "function"
    },
    {
      "inputs": [
        {
          "internalType": "address",
          "name": "operator",
          "type": "address"
        },
        {
          "internalType": "bool",
          "name": "approved",
          "type": "bool"
        }
      ],
      "name": "setApprovalForAll",
      "outputs": [],
      "stateMutability": "nonpayable",
      "type": "function"
    },
    {
      "inputs": [
        {
          "internalType": "string",
          "name": "name",
          "type": "string"
        },
        {
          "internalType": "string",
          "name": "record",
          "type": "string"
        }
      ],
      "name": "setRecord",
      "outputs": [],
      "stateMutability": "nonpayable",
      "type": "function"
    },
    {
      "inputs": [
        {
          "internalType": "bytes4",
          "name": "interfaceId",
          "type": "bytes4"
        }
      ],
      "name": "supportsInterface",
      "outputs": [
        {
          "internalType": "bool",
          "name": "",
          "type": "bool"
        }
      ],
      "stateMutability": "view",
      "type": "function"
    },
    {
      "inputs": [],
      "name": "symbol",
      "outputs": [
        {
          "internalType": "string",
          "name": "",
          "type": "string"
        }
      ],
      "stateMutability": "view",
      "type": "function"
    },
    {
      "inputs": [],
      "name": "tld",
      "outputs": [
        {
          "internalType": "string",
          "name": "",
          "type": "string"
        }
      ],
      "stateMutability": "view",
      "type": "function"
    },
    {
      "inputs": [
        {
          "internalType": "uint256",
          "name": "tokenId",
          "type": "uint256"
        }
      ],
      "name": "tokenURI",
      "outputs": [
        {
          "internalType": "string",
          "name": "",
          "type": "string"
        }
      ],
      "stateMutability": "view",
      "type": "function"
    },
    {
      "inputs": [
        {
          "internalType": "address",
          "name": "from",
          "type": "address"
        },
        {
          "internalType": "address",
          "name": "to",
          "type": "address"
        },
        {
          "internalType": "uint256",
          "name": "tokenId",
          "type": "uint256"
        }
      ],
      "name": "transferFrom",
      "outputs": [],
      "stateMutability": "nonpayable",
      "type": "function"
    }
  ],
  "bytecode": "0x6080604052604051806107a0016040528061076b81526020016200571f61076b9139600c90805190602001906200003892919062000287565b506040518060400160405280600d81526020017f3c2f746578743e3c2f7376673e00000000000000000000000000000000000000815250600d90805190602001906200008692919062000287565b5060405162005e8a38038062005e8a8339818101604052810190620000ac9190620004d4565b6040518060400160405280601081526020017f4c6974204e616d652053657276696365000000000000000000000000000000008152506040518060400160405280600381526020017f4c4e53000000000000000000000000000000000000000000000000000000000081525081600090805190602001906200013092919062000287565b5080600190805190602001906200014992919062000287565b50505080600890805190602001906200016492919062000287565b50620001b16040518060400160405280601881526020017f2573206e616d652073657276696365206465706c6f796564000000000000000081525082620001b860201b62001f061760201c565b5062000622565b6200025a8282604051602401620001d192919062000582565b6040516020818303038152906040527f4b5c4277000000000000000000000000000000000000000000000000000000007bffffffffffffffffffffffffffffffffffffffffffffffffffffffff19166020820180517bffffffffffffffffffffffffffffffffffffffffffffffffffffffff83818316178352505050506200025e60201b60201c565b5050565b60008151905060006a636f6e736f6c652e6c6f679050602083016000808483855afa5050505050565b8280546200029590620005ec565b90600052602060002090601f016020900481019282620002b9576000855562000305565b82601f10620002d457805160ff191683800117855562000305565b8280016001018555821562000305579182015b8281111562000304578251825591602001919060010190620002e7565b5b50905062000314919062000318565b5090565b5b808211156200033357600081600090555060010162000319565b5090565b6000604051905090565b600080fd5b600080fd5b600080fd5b600080fd5b6000601f19601f8301169050919050565b7f4e487b7100000000000000000000000000000000000000000000000000000000600052604160045260246000fd5b620003a08262000355565b810181811067ffffffffffffffff82111715620003c257620003c162000366565b5b80604052505050565b6000620003d762000337565b9050620003e5828262000395565b919050565b600067ffffffffffffffff82111562000408576200040762000366565b5b620004138262000355565b9050602081019050919050565b60005b838110156200044057808201518184015260208101905062000423565b8381111562000450576000848401525b50505050565b60006200046d6200046784620003ea565b620003cb565b9050828152602081018484840111156200048c576200048b62000350565b5b6200049984828562000420565b509392505050565b600082601f830112620004b957620004b86200034b565b5b8151620004cb84826020860162000456565b91505092915050565b600060208284031215620004ed57620004ec62000341565b5b600082015167ffffffffffffffff8111156200050e576200050d62000346565b5b6200051c84828501620004a1565b91505092915050565b600081519050919050565b600082825260208201905092915050565b60006200054e8262000525565b6200055a818562000530565b93506200056c81856020860162000420565b620005778162000355565b840191505092915050565b600060408201905081810360008301526200059e818562000541565b90508181036020830152620005b4818462000541565b90509392505050565b7f4e487b7100000000000000000000000000000000000000000000000000000000600052602260045260246000fd5b600060028204905060018216806200060557607f821691505b602082108114156200061c576200061b620005bd565b5b50919050565b6150ed80620006326000396000f3fe60806040526004361061019c5760003560e01c80636352211e116100ec578063bf40fac11161008a578063e985e9c511610064578063e985e9c51461064e578063f060c4e21461068b578063f2c298be146106a7578063fe2c6198146106c35761019c565b8063bf40fac1146105ab578063c1880a98146105e8578063c87b56dd146106115761019c565b8063a22cb465116100c6578063a22cb465146104f3578063ae4b62191461051c578063b88d4fde14610545578063bd1892211461056e5761019c565b80636352211e1461044e57806370a082311461048b57806395d89b41146104c85761019c565b80631916f978116101595780632728dc30116101335780632728dc301461037d5780632d551432146103bd57806342842e0e146103e8578063541e771d146104115761019c565b80631916f978146102ec57806323b872dd1461031757806326449235146103405761019c565b806301ffc9a7146101a157806306fdde03146101de578063081812fc14610209578063095ea7b3146102465780630edd6d9b1461026f57806311dd8845146102af575b600080fd5b3480156101ad57600080fd5b506101c860048036038101906101c391906134f4565b610700565b6040516101d5919061353c565b60405180910390f35b3480156101ea57600080fd5b506101f36107e2565b60405161020091906135f0565b60405180910390f35b34801561021557600080fd5b50610230600480360381019061022b9190613648565b610874565b60405161023d91906136b6565b60405180910390f35b34801561025257600080fd5b5061026d600480360381019061026891906136fd565b6108f9565b005b34801561027b57600080fd5b5061029660048036038101906102919190613648565b610a11565b6040516102a6949392919061374c565b60405180910390f35b3480156102bb57600080fd5b506102d660048036038101906102d191906137fd565b610ae6565b6040516102e391906135f0565b60405180910390f35b3480156102f857600080fd5b50610301610b99565b60405161030e919061353c565b60405180910390f35b34801561032357600080fd5b5061033e6004803603810190610339919061384a565b610cfd565b005b34801561034c57600080fd5b50610367600480360381019061036291906139cd565b610d5d565b60405161037491906136b6565b60405180910390f35b34801561038957600080fd5b506103a4600480360381019061039f9190613a16565b610da6565b6040516103b4949392919061374c565b60405180910390f35b3480156103c957600080fd5b506103d2610e6b565b6040516103df91906135f0565b60405180910390f35b3480156103f457600080fd5b5061040f600480360381019061040a919061384a565b610ef9565b005b34801561041d57600080fd5b50610438600480360381019061043391906139cd565b610f19565b60405161044591906135f0565b60405180910390f35b34801561045a57600080fd5b5061047560048036038101906104709190613648565b610fcf565b60405161048291906136b6565b60405180910390f35b34801561049757600080fd5b506104b260048036038101906104ad9190613a16565b611081565b6040516104bf9190613a43565b60405180910390f35b3480156104d457600080fd5b506104dd611139565b6040516104ea91906135f0565b60405180910390f35b3480156104ff57600080fd5b5061051a60048036038101906105159190613a8a565b6111cb565b005b34801561052857600080fd5b50610543600480360381019061053e9190613aca565b6111e1565b005b34801561055157600080fd5b5061056c60048036038101906105679190613bcb565b611502565b005b34801561057a57600080fd5b50610595600480360381019061059091906139cd565b611564565b6040516105a291906136b6565b60405180910390f35b3480156105b757600080fd5b506105d260048036038101906105cd91906137fd565b6115ad565b6040516105df91906136b6565b60405180910390f35b3480156105f457600080fd5b5061060f600480360381019061060a9190613c4e565b6115f8565b005b34801561061d57600080fd5b5061063860048036038101906106339190613648565b6116a6565b60405161064591906135f0565b60405180910390f35b34801561065a57600080fd5b5061067560048036038101906106709190613ccf565b6117f8565b604051610682919061353c565b60405180910390f35b6106a560048036038101906106a09190613d0f565b61188c565b005b6106c160048036038101906106bc91906137fd565b611e5c565b005b3480156106cf57600080fd5b506106ea60048036038101906106e591906137fd565b611e60565b6040516106f79190613a43565b60405180910390f35b60007f80ac58cd000000000000000000000000000000000000000000000000000000007bffffffffffffffffffffffffffffffffffffffffffffffffffffffff1916827bffffffffffffffffffffffffffffffffffffffffffffffffffffffff191614806107cb57507f5b5e139f000000000000000000000000000000000000000000000000000000007bffffffffffffffffffffffffffffffffffffffffffffffffffffffff1916827bffffffffffffffffffffffffffffffffffffffffffffffffffffffff1916145b806107db57506107da82611fa2565b5b9050919050565b6060600080546107f190613d9e565b80601f016020809104026020016040519081016040528092919081815260200182805461081d90613d9e565b801561086a5780601f1061083f5761010080835404028352916020019161086a565b820191906000526020600020905b81548152906001019060200180831161084d57829003601f168201915b5050505050905090565b600061087f8261200c565b6108be576040517f08c379a00000000000000000000000000000000000000000000000000000000081526004016108b590613e42565b60405180910390fd5b6004600083815260200190815260200160002060009054906101000a900473ffffffffffffffffffffffffffffffffffffffff169050919050565b600061090482610fcf565b90508073ffffffffffffffffffffffffffffffffffffffff168373ffffffffffffffffffffffffffffffffffffffff161415610975576040517f08c379a000000000000000000000000000000000000000000000000000000000815260040161096c90613ed4565b60405180910390fd5b8073ffffffffffffffffffffffffffffffffffffffff16610994612078565b73ffffffffffffffffffffffffffffffffffffffff1614806109c357506109c2816109bd612078565b6117f8565b5b610a02576040517f08c379a00000000000000000000000000000000000000000000000000000000081526004016109f990613f66565b60405180910390fd5b610a0c8383612080565b505050565b60108181548110610a2157600080fd5b9060005260206000209060040201600091509050806000018054610a4490613d9e565b80601f0160208091040260200160405190810160405280929190818152602001828054610a7090613d9e565b8015610abd5780601f10610a9257610100808354040283529160200191610abd565b820191906000526020600020905b815481529060010190602001808311610aa057829003601f168201915b5050505050908060010154908060020154908060030160009054906101000a900460ff16905084565b6060600a8383604051610afa929190613fb6565b90815260200160405180910390208054610b1390613d9e565b80601f0160208091040260200160405190810160405280929190818152602001828054610b3f90613d9e565b8015610b8c5780601f10610b6157610100808354040283529160200191610b8c565b820191906000526020600020905b815481529060010190602001808311610b6f57829003601f168201915b5050505050905092915050565b600080600f60003373ffffffffffffffffffffffffffffffffffffffff1673ffffffffffffffffffffffffffffffffffffffff168152602001908152602001600020604051806080016040529081600082018054610bf690613d9e565b80601f0160208091040260200160405190810160405280929190818152602001828054610c2290613d9e565b8015610c6f5780601f10610c4457610100808354040283529160200191610c6f565b820191906000526020600020905b815481529060010190602001808311610c5257829003601f168201915b5050505050815260200160018201548152602001600282015481526020016003820160009054906101000a900460ff1615151515815250509050610cf26040518060400160405280601e81526020017f25732068617320646f6d61696e2025732077697468207374617475733a2000008152503383600001518460600151612139565b806060015191505090565b610d0e610d08612078565b826121db565b610d4d576040517f08c379a0000000000000000000000000000000000000000000000000000000008152600401610d4490614041565b60405180910390fd5b610d588383836122b9565b505050565b6009818051602081018201805184825260208301602085012081835280955050505050506000915054906101000a900473ffffffffffffffffffffffffffffffffffffffff1681565b600f602052806000526040600020600091509050806000018054610dc990613d9e565b80601f0160208091040260200160405190810160405280929190818152602001828054610df590613d9e565b8015610e425780601f10610e1757610100808354040283529160200191610e42565b820191906000526020600020905b815481529060010190602001808311610e2557829003601f168201915b5050505050908060010154908060020154908060030160009054906101000a900460ff16905084565b60088054610e7890613d9e565b80601f0160208091040260200160405190810160405280929190818152602001828054610ea490613d9e565b8015610ef15780601f10610ec657610100808354040283529160200191610ef1565b820191906000526020600020905b815481529060010190602001808311610ed457829003601f168201915b505050505081565b610f1483838360405180602001604052806000815250611502565b505050565b600a818051602081018201805184825260208301602085012081835280955050505050506000915090508054610f4e90613d9e565b80601f0160208091040260200160405190810160405280929190818152602001828054610f7a90613d9e565b8015610fc75780601f10610f9c57610100808354040283529160200191610fc7565b820191906000526020600020905b815481529060010190602001808311610faa57829003601f168201915b505050505081565b6000806002600084815260200190815260200160002060009054906101000a900473ffffffffffffffffffffffffffffffffffffffff169050600073ffffffffffffffffffffffffffffffffffffffff168173ffffffffffffffffffffffffffffffffffffffff161415611078576040517f08c379a000000000000000000000000000000000000000000000000000000000815260040161106f906140d3565b60405180910390fd5b80915050919050565b60008073ffffffffffffffffffffffffffffffffffffffff168273ffffffffffffffffffffffffffffffffffffffff1614156110f2576040517f08c379a00000000000000000000000000000000000000000000000000000000081526004016110e990614165565b60405180910390fd5b600360008373ffffffffffffffffffffffffffffffffffffffff1673ffffffffffffffffffffffffffffffffffffffff168152602001908152602001600020549050919050565b60606001805461114890613d9e565b80601f016020809104026020016040519081016040528092919081815260200182805461117490613d9e565b80156111c15780601f10611196576101008083540402835291602001916111c1565b820191906000526020600020905b8154815290600101906020018083116111a457829003601f168201915b5050505050905090565b6111dd6111d6612078565b8383612520565b5050565b6000600f60003373ffffffffffffffffffffffffffffffffffffffff1673ffffffffffffffffffffffffffffffffffffffff16815260200190815260200160002060405180608001604052908160008201805461123d90613d9e565b80601f016020809104026020016040519081016040528092919081815260200182805461126990613d9e565b80156112b65780601f1061128b576101008083540402835291602001916112b6565b820191906000526020600020905b81548152906001019060200180831161129957829003601f168201915b5050505050815260200160018201548152602001600282015481526020016003820160009054906101000a900460ff161515151581525050905081806112ff5750428160200151115b156114fc57600081606001901515908115158152505060008160400181815250506000816020018181525050600f60003373ffffffffffffffffffffffffffffffffffffffff1673ffffffffffffffffffffffffffffffffffffffff1681526020019081526020016000206000808201600061137b91906132f5565b600182016000905560028201600090556003820160006101000a81549060ff021916905550506000600e85856040516113b5929190613fb6565b908152602001604051809103902060006101000a81548173ffffffffffffffffffffffffffffffffffffffff021916908373ffffffffffffffffffffffffffffffffffffffff16021790555060005b6010805490508110156114fa57816000015160405160200161142691906141b6565b60405160208183030381529060405280519060200120601082815481106114505761144f6141cd565b5b90600052602060002090600402016000016040516020016114719190614290565b6040516020818303038152906040528051906020012014156114e757601081815481106114a1576114a06141cd565b5b9060005260206000209060040201600080820160006114c091906132f5565b600182016000905560028201600090556003820160006101000a81549060ff021916905550505b80806114f2906142d6565b915050611404565b505b50505050565b61151361150d612078565b836121db565b611552576040517f08c379a000000000000000000000000000000000000000000000000000000000815260040161154990614041565b60405180910390fd5b61155e8484848461268d565b50505050565b600e818051602081018201805184825260208301602085012081835280955050505050506000915054906101000a900473ffffffffffffffffffffffffffffffffffffffff1681565b6000600983836040516115c1929190613fb6565b908152602001604051809103902060009054906101000a900473ffffffffffffffffffffffffffffffffffffffff16905092915050565b3373ffffffffffffffffffffffffffffffffffffffff1660098585604051611621929190613fb6565b908152602001604051809103902060009054906101000a900473ffffffffffffffffffffffffffffffffffffffff1673ffffffffffffffffffffffffffffffffffffffff161461167057600080fd5b8181600a8686604051611684929190613fb6565b9081526020016040518091039020919061169f929190613335565b5050505050565b60606116b18261200c565b6116f0576040517f08c379a00000000000000000000000000000000000000000000000000000000081526004016116e790614391565b60405180910390fd5b600060066000848152602001908152602001600020805461171090613d9e565b80601f016020809104026020016040519081016040528092919081815260200182805461173c90613d9e565b80156117895780601f1061175e57610100808354040283529160200191611789565b820191906000526020600020905b81548152906001019060200180831161176c57829003601f168201915b50505050509050600061179a6126e9565b90506000815114156117b05781925050506117f3565b6000825111156117e55780826040516020016117cd9291906143b1565b604051602081830303815290604052925050506117f3565b6117ee84612700565b925050505b919050565b6000600560008473ffffffffffffffffffffffffffffffffffffffff1673ffffffffffffffffffffffffffffffffffffffff16815260200190815260200160002060008373ffffffffffffffffffffffffffffffffffffffff1673ffffffffffffffffffffffffffffffffffffffff16815260200190815260200160002060009054906101000a900460ff16905092915050565b600073ffffffffffffffffffffffffffffffffffffffff16600e84846040516118b6929190613fb6565b908152602001604051809103902060009054906101000a900473ffffffffffffffffffffffffffffffffffffffff1673ffffffffffffffffffffffffffffffffffffffff16148061195a575060001515600f60003373ffffffffffffffffffffffffffffffffffffffff1673ffffffffffffffffffffffffffffffffffffffff16815260200190815260200160002060030160009054906101000a900460ff161515145b61196357600080fd5b600061196f8484611e60565b9050803410156119b4576040517f08c379a00000000000000000000000000000000000000000000000000000000081526004016119ab90614421565b60405180910390fd5b33600e85856040516119c7929190613fb6565b908152602001604051809103902060006101000a81548173ffffffffffffffffffffffffffffffffffffffff021916908373ffffffffffffffffffffffffffffffffffffffff1602179055506001600f60003373ffffffffffffffffffffffffffffffffffffffff1673ffffffffffffffffffffffffffffffffffffffff16815260200190815260200160002060030160006101000a81548160ff021916908315150217905550611a766133bb565b84848080601f016020809104026020016040519081016040528093929190818152602001838380828437600081840152601f19601f8201169050808301925050505050505081600001819052506201518083611ad29190614441565b42611add919061449b565b81602001818152505042816040018181525050600181606001901515908115158152505060108190806001815401808255809150506001900390600052602060002090600402016000909190919091506000820151816000019080519060200190611b499291906133e5565b50602082015181600101556040820151816002015560608201518160030160006101000a81548160ff0219169083151502179055505050611ba26040518060600160405280602b815260200161508d602b9139336127a7565b600085856008604051602001611bba9392919061453d565b60405160208183030381529060405290506000600c82600d604051602001611be4939291906145ba565b60405160208183030381529060405290506000611c01600b612843565b90506000611c5289898080601f016020809104026020016040519081016040528093929190818152602001838380828437600081840152601f19601f82011690508083019250505050505050612851565b90506000611c5f82612a06565b9050611d53604051806060016040528060318152602001614fe3603191398b8b8080601f016020809104026020016040519081016040528093929190818152602001838380828437600081840152601f19601f8201169050808301925050505050505060088054611ccf90613d9e565b80601f0160208091040260200160405190810160405280929190818152602001828054611cfb90613d9e565b8015611d485780601f10611d1d57610100808354040283529160200191611d48565b820191906000526020600020905b815481529060010190602001808311611d2b57829003601f168201915b505050505086612b67565b6000611d8986611d6287612c09565b84604051602001611d7593929190614772565b604051602081830303815290604052612c09565b9050600081604051602001611d9e919061481b565b6040516020818303038152906040529050611dd0604051806060016040528060398152602001614faa60399139612da1565b611e0f6040518060400160405280600e81526020017f46696e616c20746f6b656e55524900000000000000000000000000000000000081525082611f06565b611e3060405180606001604052806039815260200161501460399139612da1565b611e3a3386612e3a565b611e448582612e58565b611e4e600b612ecc565b505050505050505050505050565b5050565b600080611eb084848080601f016020809104026020016040519081016040528093929190818152602001838380828437600081840152601f19601f82011690508083019250505050505050612851565b905060008111611ebf57600080fd5b6003811415611ed9576706f05b59d3b20000915050611f00565b6004811415611ef357670429d069189e0000915050611f00565b67016345785d8a00009150505b92915050565b611f9e8282604051602401611f1c92919061483d565b6040516020818303038152906040527f4b5c4277000000000000000000000000000000000000000000000000000000007bffffffffffffffffffffffffffffffffffffffffffffffffffffffff19166020820180517bffffffffffffffffffffffffffffffffffffffffffffffffffffffff8381831617835250505050612ee2565b5050565b60007f01ffc9a7000000000000000000000000000000000000000000000000000000007bffffffffffffffffffffffffffffffffffffffffffffffffffffffff1916827bffffffffffffffffffffffffffffffffffffffffffffffffffffffff1916149050919050565b60008073ffffffffffffffffffffffffffffffffffffffff166002600084815260200190815260200160002060009054906101000a900473ffffffffffffffffffffffffffffffffffffffff1673ffffffffffffffffffffffffffffffffffffffff1614159050919050565b600033905090565b816004600083815260200190815260200160002060006101000a81548173ffffffffffffffffffffffffffffffffffffffff021916908373ffffffffffffffffffffffffffffffffffffffff160217905550808273ffffffffffffffffffffffffffffffffffffffff166120f383610fcf565b73ffffffffffffffffffffffffffffffffffffffff167f8c5be1e5ebec7d5bd14f71427d1e84f3dd0314c0f7b2291e5b200ac8c7c3b92560405160405180910390a45050565b6121d5848484846040516024016121539493929190614874565b6040516020818303038152906040527f5f15d28c000000000000000000000000000000000000000000000000000000007bffffffffffffffffffffffffffffffffffffffffffffffffffffffff19166020820180517bffffffffffffffffffffffffffffffffffffffffffffffffffffffff8381831617835250505050612ee2565b50505050565b60006121e68261200c565b612225576040517f08c379a000000000000000000000000000000000000000000000000000000000815260040161221c90614939565b60405180910390fd5b600061223083610fcf565b90508073ffffffffffffffffffffffffffffffffffffffff168473ffffffffffffffffffffffffffffffffffffffff16148061229f57508373ffffffffffffffffffffffffffffffffffffffff1661228784610874565b73ffffffffffffffffffffffffffffffffffffffff16145b806122b057506122af81856117f8565b5b91505092915050565b8273ffffffffffffffffffffffffffffffffffffffff166122d982610fcf565b73ffffffffffffffffffffffffffffffffffffffff161461232f576040517f08c379a0000000000000000000000000000000000000000000000000000000008152600401612326906149cb565b60405180910390fd5b600073ffffffffffffffffffffffffffffffffffffffff168273ffffffffffffffffffffffffffffffffffffffff16141561239f576040517f08c379a000000000000000000000000000000000000000000000000000000000815260040161239690614a5d565b60405180910390fd5b6123aa838383612f0b565b6123b5600082612080565b6001600360008573ffffffffffffffffffffffffffffffffffffffff1673ffffffffffffffffffffffffffffffffffffffff16815260200190815260200160002060008282546124059190614a7d565b925050819055506001600360008473ffffffffffffffffffffffffffffffffffffffff1673ffffffffffffffffffffffffffffffffffffffff168152602001908152602001600020600082825461245c919061449b565b92505081905550816002600083815260200190815260200160002060006101000a81548173ffffffffffffffffffffffffffffffffffffffff021916908373ffffffffffffffffffffffffffffffffffffffff160217905550808273ffffffffffffffffffffffffffffffffffffffff168473ffffffffffffffffffffffffffffffffffffffff167fddf252ad1be2c89b69c2b068fc378daa952ba7f163c4a11628f55a4df523b3ef60405160405180910390a461251b838383612f10565b505050565b8173ffffffffffffffffffffffffffffffffffffffff168373ffffffffffffffffffffffffffffffffffffffff16141561258f576040517f08c379a000000000000000000000000000000000000000000000000000000000815260040161258690614afd565b60405180910390fd5b80600560008573ffffffffffffffffffffffffffffffffffffffff1673ffffffffffffffffffffffffffffffffffffffff16815260200190815260200160002060008473ffffffffffffffffffffffffffffffffffffffff1673ffffffffffffffffffffffffffffffffffffffff16815260200190815260200160002060006101000a81548160ff0219169083151502179055508173ffffffffffffffffffffffffffffffffffffffff168373ffffffffffffffffffffffffffffffffffffffff167f17307eab39ab6107e8899845ad3d59bd9653f200f220920489ca2b5937696c3183604051612680919061353c565b60405180910390a3505050565b6126988484846122b9565b6126a484848484612f15565b6126e3576040517f08c379a00000000000000000000000000000000000000000000000000000000081526004016126da90614b8f565b60405180910390fd5b50505050565b606060405180602001604052806000815250905090565b606061270b8261200c565b61274a576040517f08c379a000000000000000000000000000000000000000000000000000000000815260040161274190614c21565b60405180910390fd5b60006127546126e9565b90506000815111612774576040518060200160405280600081525061279f565b8061277e84612a06565b60405160200161278f9291906143b1565b6040516020818303038152906040525b915050919050565b61283f82826040516024016127bd929190614c41565b6040516020818303038152906040527f319af333000000000000000000000000000000000000000000000000000000007bffffffffffffffffffffffffffffffffffffffffffffffffffffffff19166020820180517bffffffffffffffffffffffffffffffffffffffffffffffffffffffff8381831617835250505050612ee2565b5050565b600081600001549050919050565b60008060008084519050600092505b808210156129fb57600085838151811061287d5761287c6141cd565b5b602001015160f81c60f81b9050608060f81b817effffffffffffffffffffffffffffffffffffffffffffffffffffffffffffff191610156128cc576001836128c5919061449b565b92506129e7565b60e060f81b817effffffffffffffffffffffffffffffffffffffffffffffffffffffffffffff1916101561290e57600283612907919061449b565b92506129e6565b60f060f81b817effffffffffffffffffffffffffffffffffffffffffffffffffffffffffffff1916101561295057600383612949919061449b565b92506129e5565b60f8801b817effffffffffffffffffffffffffffffffffffffffffffffffffffffffffffff191610156129915760048361298a919061449b565b92506129e4565b60fc60f81b817effffffffffffffffffffffffffffffffffffffffffffffffffffffffffffff191610156129d3576005836129cc919061449b565b92506129e3565b6006836129e0919061449b565b92505b5b5b5b5b5082806129f3906142d6565b935050612860565b829350505050919050565b60606000821415612a4e576040518060400160405280600181526020017f30000000000000000000000000000000000000000000000000000000000000008152509050612b62565b600082905060005b60008214612a80578080612a69906142d6565b915050600a82612a799190614ca0565b9150612a56565b60008167ffffffffffffffff811115612a9c57612a9b6138a2565b5b6040519080825280601f01601f191660200182016040528015612ace5781602001600182028036833780820191505090505b5090505b60008514612b5b57600182612ae79190614a7d565b9150600a85612af69190614cd1565b6030612b02919061449b565b60f81b818381518110612b1857612b176141cd565b5b60200101907effffffffffffffffffffffffffffffffffffffffffffffffffffffffffffff1916908160001a905350600a85612b549190614ca0565b9450612ad2565b8093505050505b919050565b612c0384848484604051602401612b819493929190614d02565b6040516020818303038152906040527f9fd009f5000000000000000000000000000000000000000000000000000000007bffffffffffffffffffffffffffffffffffffffffffffffffffffffff19166020820180517bffffffffffffffffffffffffffffffffffffffffffffffffffffffff8381831617835250505050612ee2565b50505050565b60606000825190506000811415612c325760405180602001604052806000815250915050612d9c565b60006003600283612c43919061449b565b612c4d9190614ca0565b6004612c599190614441565b90506000602082612c6a919061449b565b67ffffffffffffffff811115612c8357612c826138a2565b5b6040519080825280601f01601f191660200182016040528015612cb55781602001600182028036833780820191505090505b509050600060405180606001604052806040815260200161504d604091399050600181016020830160005b86811015612d595760038101905062ffffff818a015116603f8160121c168401518060081b905060ff603f83600c1c1686015116810190508060081b905060ff603f8360061c1686015116810190508060081b905060ff603f831686015116810190508060e01b90508084526004840193505050612ce0565b506003860660018114612d735760028114612d8357612d8e565b613d3d60f01b6002830352612d8e565b603d60f81b60018303525b508484525050819450505050505b919050565b612e3781604051602401612db591906135f0565b6040516020818303038152906040527f41304fac000000000000000000000000000000000000000000000000000000007bffffffffffffffffffffffffffffffffffffffffffffffffffffffff19166020820180517bffffffffffffffffffffffffffffffffffffffffffffffffffffffff8381831617835250505050612ee2565b50565b612e5482826040518060200160405280600081525061309d565b5050565b612e618261200c565b612ea0576040517f08c379a0000000000000000000000000000000000000000000000000000000008152600401612e9790614dce565b60405180910390fd5b80600660008481526020019081526020016000209080519060200190612ec79291906133e5565b505050565b6001816000016000828254019250508190555050565b60008151905060006a636f6e736f6c652e6c6f679050602083016000808483855afa5050505050565b505050565b505050565b6000612f368473ffffffffffffffffffffffffffffffffffffffff166130f8565b15613090578373ffffffffffffffffffffffffffffffffffffffff1663150b7a02612f5f612078565b8786866040518563ffffffff1660e01b8152600401612f819493929190614e43565b6020604051808303816000875af1925050508015612fbd57506040513d601f19601f82011682018060405250810190612fba9190614ea4565b60015b613040573d8060008114612fed576040519150601f19603f3d011682016040523d82523d6000602084013e612ff2565b606091505b50600081511415613038576040517f08c379a000000000000000000000000000000000000000000000000000000000815260040161302f90614b8f565b60405180910390fd5b805181602001fd5b63150b7a0260e01b7bffffffffffffffffffffffffffffffffffffffffffffffffffffffff1916817bffffffffffffffffffffffffffffffffffffffffffffffffffffffff191614915050613095565b600190505b949350505050565b6130a7838361311b565b6130b46000848484612f15565b6130f3576040517f08c379a00000000000000000000000000000000000000000000000000000000081526004016130ea90614b8f565b60405180910390fd5b505050565b6000808273ffffffffffffffffffffffffffffffffffffffff163b119050919050565b600073ffffffffffffffffffffffffffffffffffffffff168273ffffffffffffffffffffffffffffffffffffffff16141561318b576040517f08c379a000000000000000000000000000000000000000000000000000000000815260040161318290614f1d565b60405180910390fd5b6131948161200c565b156131d4576040517f08c379a00000000000000000000000000000000000000000000000000000000081526004016131cb90614f89565b60405180910390fd5b6131e060008383612f0b565b6001600360008473ffffffffffffffffffffffffffffffffffffffff1673ffffffffffffffffffffffffffffffffffffffff1681526020019081526020016000206000828254613230919061449b565b92505081905550816002600083815260200190815260200160002060006101000a81548173ffffffffffffffffffffffffffffffffffffffff021916908373ffffffffffffffffffffffffffffffffffffffff160217905550808273ffffffffffffffffffffffffffffffffffffffff16600073ffffffffffffffffffffffffffffffffffffffff167fddf252ad1be2c89b69c2b068fc378daa952ba7f163c4a11628f55a4df523b3ef60405160405180910390a46132f160008383612f10565b5050565b50805461330190613d9e565b6000825580601f106133135750613332565b601f016020900490600052602060002090810190613331919061346b565b5b50565b82805461334190613d9e565b90600052602060002090601f01602090048101928261336357600085556133aa565b82601f1061337c57803560ff19168380011785556133aa565b828001600101855582156133aa579182015b828111156133a957823582559160200191906001019061338e565b5b5090506133b7919061346b565b5090565b60405180608001604052806060815260200160008152602001600081526020016000151581525090565b8280546133f190613d9e565b90600052602060002090601f016020900481019282613413576000855561345a565b82601f1061342c57805160ff191683800117855561345a565b8280016001018555821561345a579182015b8281111561345957825182559160200191906001019061343e565b5b509050613467919061346b565b5090565b5b8082111561348457600081600090555060010161346c565b5090565b6000604051905090565b600080fd5b600080fd5b60007fffffffff0000000000000000000000000000000000000000000000000000000082169050919050565b6134d18161349c565b81146134dc57600080fd5b50565b6000813590506134ee816134c8565b92915050565b60006020828403121561350a57613509613492565b5b6000613518848285016134df565b91505092915050565b60008115159050919050565b61353681613521565b82525050565b6000602082019050613551600083018461352d565b92915050565b600081519050919050565b600082825260208201905092915050565b60005b83811015613591578082015181840152602081019050613576565b838111156135a0576000848401525b50505050565b6000601f19601f8301169050919050565b60006135c282613557565b6135cc8185613562565b93506135dc818560208601613573565b6135e5816135a6565b840191505092915050565b6000602082019050818103600083015261360a81846135b7565b905092915050565b6000819050919050565b61362581613612565b811461363057600080fd5b50565b6000813590506136428161361c565b92915050565b60006020828403121561365e5761365d613492565b5b600061366c84828501613633565b91505092915050565b600073ffffffffffffffffffffffffffffffffffffffff82169050919050565b60006136a082613675565b9050919050565b6136b081613695565b82525050565b60006020820190506136cb60008301846136a7565b92915050565b6136da81613695565b81146136e557600080fd5b50565b6000813590506136f7816136d1565b92915050565b6000806040838503121561371457613713613492565b5b6000613722858286016136e8565b925050602061373385828601613633565b9150509250929050565b61374681613612565b82525050565b6000608082019050818103600083015261376681876135b7565b9050613775602083018661373d565b613782604083018561373d565b61378f606083018461352d565b95945050505050565b600080fd5b600080fd5b600080fd5b60008083601f8401126137bd576137bc613798565b5b8235905067ffffffffffffffff8111156137da576137d961379d565b5b6020830191508360018202830111156137f6576137f56137a2565b5b9250929050565b6000806020838503121561381457613813613492565b5b600083013567ffffffffffffffff81111561383257613831613497565b5b61383e858286016137a7565b92509250509250929050565b60008060006060848603121561386357613862613492565b5b6000613871868287016136e8565b9350506020613882868287016136e8565b925050604061389386828701613633565b9150509250925092565b600080fd5b7f4e487b7100000000000000000000000000000000000000000000000000000000600052604160045260246000fd5b6138da826135a6565b810181811067ffffffffffffffff821117156138f9576138f86138a2565b5b80604052505050565b600061390c613488565b905061391882826138d1565b919050565b600067ffffffffffffffff821115613938576139376138a2565b5b613941826135a6565b9050602081019050919050565b82818337600083830152505050565b600061397061396b8461391d565b613902565b90508281526020810184848401111561398c5761398b61389d565b5b61399784828561394e565b509392505050565b600082601f8301126139b4576139b3613798565b5b81356139c484826020860161395d565b91505092915050565b6000602082840312156139e3576139e2613492565b5b600082013567ffffffffffffffff811115613a0157613a00613497565b5b613a0d8482850161399f565b91505092915050565b600060208284031215613a2c57613a2b613492565b5b6000613a3a848285016136e8565b91505092915050565b6000602082019050613a58600083018461373d565b92915050565b613a6781613521565b8114613a7257600080fd5b50565b600081359050613a8481613a5e565b92915050565b60008060408385031215613aa157613aa0613492565b5b6000613aaf858286016136e8565b9250506020613ac085828601613a75565b9150509250929050565b600080600060408486031215613ae357613ae2613492565b5b600084013567ffffffffffffffff811115613b0157613b00613497565b5b613b0d868287016137a7565b93509350506020613b2086828701613a75565b9150509250925092565b600067ffffffffffffffff821115613b4557613b446138a2565b5b613b4e826135a6565b9050602081019050919050565b6000613b6e613b6984613b2a565b613902565b905082815260208101848484011115613b8a57613b8961389d565b5b613b9584828561394e565b509392505050565b600082601f830112613bb257613bb1613798565b5b8135613bc2848260208601613b5b565b91505092915050565b60008060008060808587031215613be557613be4613492565b5b6000613bf3878288016136e8565b9450506020613c04878288016136e8565b9350506040613c1587828801613633565b925050606085013567ffffffffffffffff811115613c3657613c35613497565b5b613c4287828801613b9d565b91505092959194509250565b60008060008060408587031215613c6857613c67613492565b5b600085013567ffffffffffffffff811115613c8657613c85613497565b5b613c92878288016137a7565b9450945050602085013567ffffffffffffffff811115613cb557613cb4613497565b5b613cc1878288016137a7565b925092505092959194509250565b60008060408385031215613ce657613ce5613492565b5b6000613cf4858286016136e8565b9250506020613d05858286016136e8565b9150509250929050565b600080600060408486031215613d2857613d27613492565b5b600084013567ffffffffffffffff811115613d4657613d45613497565b5b613d52868287016137a7565b93509350506020613d6586828701613633565b9150509250925092565b7f4e487b7100000000000000000000000000000000000000000000000000000000600052602260045260246000fd5b60006002820490506001821680613db657607f821691505b60208210811415613dca57613dc9613d6f565b5b50919050565b7f4552433732313a20617070726f76656420717565727920666f72206e6f6e657860008201527f697374656e7420746f6b656e0000000000000000000000000000000000000000602082015250565b6000613e2c602c83613562565b9150613e3782613dd0565b604082019050919050565b60006020820190508181036000830152613e5b81613e1f565b9050919050565b7f4552433732313a20617070726f76616c20746f2063757272656e74206f776e6560008201527f7200000000000000000000000000000000000000000000000000000000000000602082015250565b6000613ebe602183613562565b9150613ec982613e62565b604082019050919050565b60006020820190508181036000830152613eed81613eb1565b9050919050565b7f4552433732313a20617070726f76652063616c6c6572206973206e6f74206f7760008201527f6e6572206e6f7220617070726f76656420666f7220616c6c0000000000000000602082015250565b6000613f50603883613562565b9150613f5b82613ef4565b604082019050919050565b60006020820190508181036000830152613f7f81613f43565b9050919050565b600081905092915050565b6000613f9d8385613f86565b9350613faa83858461394e565b82840190509392505050565b6000613fc3828486613f91565b91508190509392505050565b7f4552433732313a207472616e736665722063616c6c6572206973206e6f74206f60008201527f776e6572206e6f7220617070726f766564000000000000000000000000000000602082015250565b600061402b603183613562565b915061403682613fcf565b604082019050919050565b6000602082019050818103600083015261405a8161401e565b9050919050565b7f4552433732313a206f776e657220717565727920666f72206e6f6e657869737460008201527f656e7420746f6b656e0000000000000000000000000000000000000000000000602082015250565b60006140bd602983613562565b91506140c882614061565b604082019050919050565b600060208201905081810360008301526140ec816140b0565b9050919050565b7f4552433732313a2062616c616e636520717565727920666f7220746865207a6560008201527f726f206164647265737300000000000000000000000000000000000000000000602082015250565b600061414f602a83613562565b915061415a826140f3565b604082019050919050565b6000602082019050818103600083015261417e81614142565b9050919050565b600061419082613557565b61419a8185613f86565b93506141aa818560208601613573565b80840191505092915050565b60006141c28284614185565b915081905092915050565b7f4e487b7100000000000000000000000000000000000000000000000000000000600052603260045260246000fd5b60008190508160005260206000209050919050565b6000815461421e81613d9e565b6142288186613f86565b94506001821660008114614243576001811461425457614287565b60ff19831686528186019350614287565b61425d856141fc565b60005b8381101561427f57815481890152600182019150602081019050614260565b838801955050505b50505092915050565b600061429c8284614211565b915081905092915050565b7f4e487b7100000000000000000000000000000000000000000000000000000000600052601160045260246000fd5b60006142e182613612565b91507fffffffffffffffffffffffffffffffffffffffffffffffffffffffffffffffff821415614314576143136142a7565b5b600182019050919050565b7f45524337323155524953746f726167653a2055524920717565727920666f722060008201527f6e6f6e6578697374656e7420746f6b656e000000000000000000000000000000602082015250565b600061437b603183613562565b91506143868261431f565b604082019050919050565b600060208201905081810360008301526143aa8161436e565b9050919050565b60006143bd8285614185565b91506143c98284614185565b91508190509392505050565b7f4e6f7420656e6f756768204d6174696320706169640000000000000000000000600082015250565b600061440b601583613562565b9150614416826143d5565b602082019050919050565b6000602082019050818103600083015261443a816143fe565b9050919050565b600061444c82613612565b915061445783613612565b9250817fffffffffffffffffffffffffffffffffffffffffffffffffffffffffffffffff04831182151516156144905761448f6142a7565b5b828202905092915050565b60006144a682613612565b91506144b183613612565b9250827fffffffffffffffffffffffffffffffffffffffffffffffffffffffffffffffff038211156144e6576144e56142a7565b5b828201905092915050565b7f2e00000000000000000000000000000000000000000000000000000000000000600082015250565b6000614527600183613f86565b9150614532826144f1565b600182019050919050565b600061454a828587613f91565b91506145558261451a565b91506145618284614211565b9150819050949350505050565b7ff09f94a500000000000000000000000000000000000000000000000000000000600082015250565b60006145a4600483613f86565b91506145af8261456e565b600482019050919050565b60006145c68286614211565b91506145d28285614185565b91506145dd82614597565b91506145e98284614211565b9150819050949350505050565b7f7b226e616d65223a202200000000000000000000000000000000000000000000600082015250565b600061462c600a83613f86565b9150614637826145f6565b600a82019050919050565b7f222c20226465736372697074696f6e223a20224120646f6d61696e206f6e207460008201527f6865204c6974206e616d652073657276696365222c2022696d616765223a202260208201527f646174613a696d6167652f7376672b786d6c3b6261736536342c000000000000604082015250565b60006146c4605a83613f86565b91506146cf82614642565b605a82019050919050565b7f222c226c656e677468223a220000000000000000000000000000000000000000600082015250565b6000614710600c83613f86565b915061471b826146da565b600c82019050919050565b7f227d000000000000000000000000000000000000000000000000000000000000600082015250565b600061475c600283613f86565b915061476782614726565b600282019050919050565b600061477d8261461f565b91506147898286614185565b9150614794826146b7565b91506147a08285614185565b91506147ab82614703565b91506147b78284614185565b91506147c28261474f565b9150819050949350505050565b7f646174613a6170706c69636174696f6e2f6a736f6e3b6261736536342c000000600082015250565b6000614805601d83613f86565b9150614810826147cf565b601d82019050919050565b6000614826826147f8565b91506148328284614185565b915081905092915050565b6000604082019050818103600083015261485781856135b7565b9050818103602083015261486b81846135b7565b90509392505050565b6000608082019050818103600083015261488e81876135b7565b905061489d60208301866136a7565b81810360408301526148af81856135b7565b90506148be606083018461352d565b95945050505050565b7f4552433732313a206f70657261746f7220717565727920666f72206e6f6e657860008201527f697374656e7420746f6b656e0000000000000000000000000000000000000000602082015250565b6000614923602c83613562565b915061492e826148c7565b604082019050919050565b6000602082019050818103600083015261495281614916565b9050919050565b7f4552433732313a207472616e736665722066726f6d20696e636f72726563742060008201527f6f776e6572000000000000000000000000000000000000000000000000000000602082015250565b60006149b5602583613562565b91506149c082614959565b604082019050919050565b600060208201905081810360008301526149e4816149a8565b9050919050565b7f4552433732313a207472616e7366657220746f20746865207a65726f2061646460008201527f7265737300000000000000000000000000000000000000000000000000000000602082015250565b6000614a47602483613562565b9150614a52826149eb565b604082019050919050565b60006020820190508181036000830152614a7681614a3a565b9050919050565b6000614a8882613612565b9150614a9383613612565b925082821015614aa657614aa56142a7565b5b828203905092915050565b7f4552433732313a20617070726f766520746f2063616c6c657200000000000000600082015250565b6000614ae7601983613562565b9150614af282614ab1565b602082019050919050565b60006020820190508181036000830152614b1681614ada565b9050919050565b7f4552433732313a207472616e7366657220746f206e6f6e20455243373231526560008201527f63656976657220696d706c656d656e7465720000000000000000000000000000602082015250565b6000614b79603283613562565b9150614b8482614b1d565b604082019050919050565b60006020820190508181036000830152614ba881614b6c565b9050919050565b7f4552433732314d657461646174613a2055524920717565727920666f72206e6f60008201527f6e6578697374656e7420746f6b656e0000000000000000000000000000000000602082015250565b6000614c0b602f83613562565b9150614c1682614baf565b604082019050919050565b60006020820190508181036000830152614c3a81614bfe565b9050919050565b60006040820190508181036000830152614c5b81856135b7565b9050614c6a60208301846136a7565b9392505050565b7f4e487b7100000000000000000000000000000000000000000000000000000000600052601260045260246000fd5b6000614cab82613612565b9150614cb683613612565b925082614cc657614cc5614c71565b5b828204905092915050565b6000614cdc82613612565b9150614ce783613612565b925082614cf757614cf6614c71565b5b828206905092915050565b60006080820190508181036000830152614d1c81876135b7565b90508181036020830152614d3081866135b7565b90508181036040830152614d4481856135b7565b9050614d53606083018461373d565b95945050505050565b7f45524337323155524953746f726167653a2055524920736574206f66206e6f6e60008201527f6578697374656e7420746f6b656e000000000000000000000000000000000000602082015250565b6000614db8602e83613562565b9150614dc382614d5c565b604082019050919050565b60006020820190508181036000830152614de781614dab565b9050919050565b600081519050919050565b600082825260208201905092915050565b6000614e1582614dee565b614e1f8185614df9565b9350614e2f818560208601613573565b614e38816135a6565b840191505092915050565b6000608082019050614e5860008301876136a7565b614e6560208301866136a7565b614e72604083018561373d565b8181036060830152614e848184614e0a565b905095945050505050565b600081519050614e9e816134c8565b92915050565b600060208284031215614eba57614eb9613492565b5b6000614ec884828501614e8f565b91505092915050565b7f4552433732313a206d696e7420746f20746865207a65726f2061646472657373600082015250565b6000614f07602083613562565b9150614f1282614ed1565b602082019050919050565b60006020820190508181036000830152614f3681614efa565b9050919050565b7f4552433732313a20746f6b656e20616c7265616479206d696e74656400000000600082015250565b6000614f73601c83613562565b9150614f7e82614f3d565b602082019050919050565b60006020820190508181036000830152614fa281614f66565b905091905056fe0a2d2d2d2d2d2d2d2d2d2d2d2d2d2d2d2d2d2d2d2d2d2d2d2d2d2d2d2d2d2d2d2d2d2d2d2d2d2d2d2d2d2d2d2d2d2d2d2d2d2d2d2d2d2d2d2d5265676973746572696e672025732e2573206f6e2074686520636f6e7472616374207769746820746f6b656e49442025642d2d2d2d2d2d2d2d2d2d2d2d2d2d2d2d2d2d2d2d2d2d2d2d2d2d2d2d2d2d2d2d2d2d2d2d2d2d2d2d2d2d2d2d2d2d2d2d2d2d2d2d2d2d2d2d0a4142434445464748494a4b4c4d4e4f505152535455565758595a6162636465666768696a6b6c6d6e6f707172737475767778797a303132333435363738392b2f2573206861732074656d706f726172696c7920637265617465642061206c61756e636820646f6d61696e21a264697066735822122089c483ba48612588666348d6c3c0793b343ac5ba8205dfda2c3a38ee5d412cd264736f6c634300080a00333c73766720786d6c6e733d22687474703a2f2f7777772e77332e6f72672f323030302f737667222077696474683d2232373022206865696768743d22323730222066696c6c3d226e6f6e65223e3c706174682066696c6c3d2275726c282361292220643d224d302030683237307632373048307a222f3e3c646566733e3c66696c7465722069643d22622220636f6c6f722d696e746572706f6c6174696f6e2d66696c746572733d2273524742222066696c746572556e6974733d227573657253706163654f6e55736522206865696768743d22323730222077696474683d22323730223e3c666544726f70536861646f772064783d2230222064793d22312220737464446576696174696f6e3d22322220666c6f6f642d6f7061636974793d222e323235222077696474683d223230302522206865696768743d2232303025222f3e3c2f66696c7465723e3c2f646566733e3c7061746820643d224d37322e3836332034322e39343961342e33383220342e3338322030203020302d342e33393420306c2d31302e30383120362e3033322d362e383520332e3933342d31302e30383120362e30333261342e33383220342e3338322030203020312d342e33393420306c2d382e3031332d342e37323161342e353220342e35322030203020312d312e3538392d312e36313620342e353420342e35342030203020312d2e3630382d322e313837762d392e333161342e323720342e3237203020302031202e3537322d322e32303820342e323520342e323520302030203120312e3632352d312e3539356c372e3838342d342e353961342e33383220342e33383220302030203120342e33393420306c372e38383420342e353961342e353220342e353220302030203120312e35383920312e36313620342e353420342e3534203020302031202e36303820322e31383776362e3033326c362e38352d342e303635762d362e30333261342e323720342e32372030203020302d2e3537322d322e32303820342e323520342e32352030203020302d312e3632352d312e3539354c34312e3435362032342e353961342e33383220342e3338322030203020302d342e33393420306c2d31342e38363420382e36353561342e323520342e32352030203020302d312e36323520312e35393520342e32373320342e3237332030203020302d2e35373220322e3230387631372e34343161342e323720342e3237203020302030202e35373220322e32303820342e323520342e323520302030203020312e36323520312e3539356c31342e38363420382e36353561342e33383220342e33383220302030203020342e33393420306c31302e3038312d352e39303120362e38352d342e3036352031302e3038312d352e39303161342e33383220342e33383220302030203120342e33393420306c372e38383420342e353961342e353220342e353220302030203120312e35383920312e36313620342e353420342e3534203020302031202e36303820322e31383776392e33313161342e323720342e32372030203020312d2e35373220322e32303820342e323520342e32352030203020312d312e36323520312e3539356c2d372e38383420342e37323161342e33383220342e3338322030203020312d342e33393420306c2d372e3838342d342e353961342e353220342e35322030203020312d312e3538392d312e36313620342e353320342e35332030203020312d2e3630382d322e313837762d362e3033326c2d362e383520342e30363576362e30333261342e323720342e3237203020302030202e35373220322e32303820342e323520342e323520302030203020312e36323520312e3539356c31342e38363420382e36353561342e33383220342e33383220302030203020342e33393420306c31342e3836342d382e36353561342e35343520342e35343520302030203020322e3139382d332e3830335635352e35333861342e323720342e32372030203020302d2e3537322d322e32303820342e323520342e32352030203020302d312e3632352d312e3539356c2d31342e3939332d382e3738367a222066696c6c3d2273696c766572222f3e3c646566733e3c6c696e6561724772616469656e742069643d2261222078313d2230222079313d2230222078323d22323730222079323d2232373022206772616469656e74556e6974733d227573657253706163654f6e557365223e3c73746f702073746f702d636f6c6f723d222366666666222f3e3c73746f70206f66667365743d2231222073746f702d636f6c6f723d2267726179222073746f702d6f7061636974793d222e3939222f3e3c2f6c696e6561724772616469656e743e3c2f646566733e3c7465787420783d2233322e352220793d223233312220666f6e742d73697a653d223237222066696c6c3d2223303030222066696c7465723d2275726c282362292220666f6e742d66616d696c793d22506c7573204a616b617274612053616e732c44656a6156752053616e732c4e6f746f20436f6c6f7220456d6f6a692c4170706c6520436f6c6f7220456d6f6a692c73616e732d73657269662220666f6e742d7765696768743d22626f6c64223e",
  "linkReferences": {},
  "deployedLinkReferences": {}
}