{
  "_format": "hh-sol-artifact-1",
  "contractName": "LaunchDomains",
  "sourceName": "contracts/LaunchDomains.sol",
  "abi": [
    {
      "inputs": [
        {
          "internalType": "string",
          "name": "_tld",
          "type": "string"
        }
      ],
      "stateMutability": "payable",
      "type": "constructor"
    },
    {
      "inputs": [],
      "name": "AlreadyRegistered",
      "type": "error"
    },
    {
      "inputs": [
        {
          "internalType": "string",
          "name": "name",
          "type": "string"
        }
      ],
      "name": "InvalidName",
      "type": "error"
    },
    {
      "inputs": [],
      "name": "Unauthorized",
      "type": "error"
    },
    {
      "anonymous": false,
      "inputs": [
        {
          "indexed": true,
          "internalType": "address",
          "name": "owner",
          "type": "address"
        },
        {
          "indexed": true,
          "internalType": "address",
          "name": "approved",
          "type": "address"
        },
        {
          "indexed": true,
          "internalType": "uint256",
          "name": "tokenId",
          "type": "uint256"
        }
      ],
      "name": "Approval",
      "type": "event"
    },
    {
      "anonymous": false,
      "inputs": [
        {
          "indexed": true,
          "internalType": "address",
          "name": "owner",
          "type": "address"
        },
        {
          "indexed": true,
          "internalType": "address",
          "name": "operator",
          "type": "address"
        },
        {
          "indexed": false,
          "internalType": "bool",
          "name": "approved",
          "type": "bool"
        }
      ],
      "name": "ApprovalForAll",
      "type": "event"
    },
    {
      "anonymous": false,
      "inputs": [
        {
          "indexed": true,
          "internalType": "address",
          "name": "from",
          "type": "address"
        },
        {
          "indexed": true,
          "internalType": "address",
          "name": "to",
          "type": "address"
        },
        {
          "indexed": true,
          "internalType": "uint256",
          "name": "tokenId",
          "type": "uint256"
        }
      ],
      "name": "Transfer",
      "type": "event"
    },
    {
      "inputs": [
        {
          "internalType": "address",
          "name": "to",
          "type": "address"
        },
        {
          "internalType": "uint256",
          "name": "tokenId",
          "type": "uint256"
        }
      ],
      "name": "approve",
      "outputs": [],
      "stateMutability": "nonpayable",
      "type": "function"
    },
    {
      "inputs": [
        {
          "internalType": "address",
          "name": "owner",
          "type": "address"
        }
      ],
      "name": "balanceOf",
      "outputs": [
        {
          "internalType": "uint256",
          "name": "",
          "type": "uint256"
        }
      ],
      "stateMutability": "view",
      "type": "function"
    },
    {
      "inputs": [],
      "name": "checkLaunchDomainActive",
      "outputs": [
        {
          "internalType": "bool",
          "name": "",
          "type": "bool"
        }
      ],
      "stateMutability": "view",
      "type": "function"
    },
    {
      "inputs": [
        {
          "internalType": "string",
          "name": "",
          "type": "string"
        }
      ],
      "name": "domains",
      "outputs": [
        {
          "internalType": "address",
          "name": "",
          "type": "address"
        }
      ],
      "stateMutability": "view",
      "type": "function"
    },
    {
      "inputs": [
        {
          "internalType": "string",
          "name": "name",
          "type": "string"
        }
      ],
      "name": "getAddress",
      "outputs": [
        {
          "internalType": "address",
          "name": "",
          "type": "address"
        }
      ],
      "stateMutability": "view",
      "type": "function"
    },
    {
      "inputs": [],
      "name": "getAllNames",
      "outputs": [
        {
          "internalType": "string[]",
          "name": "",
          "type": "string[]"
        }
      ],
      "stateMutability": "view",
      "type": "function"
    },
    {
      "inputs": [
        {
          "internalType": "uint256",
          "name": "tokenId",
          "type": "uint256"
        }
      ],
      "name": "getApproved",
      "outputs": [
        {
          "internalType": "address",
          "name": "",
          "type": "address"
        }
      ],
      "stateMutability": "view",
      "type": "function"
    },
    {
      "inputs": [
        {
          "internalType": "string",
          "name": "name",
          "type": "string"
        }
      ],
      "name": "getRecord",
      "outputs": [
        {
          "internalType": "string",
          "name": "",
          "type": "string"
        }
      ],
      "stateMutability": "view",
      "type": "function"
    },
    {
      "inputs": [
        {
          "internalType": "address",
          "name": "owner",
          "type": "address"
        },
        {
          "internalType": "address",
          "name": "operator",
          "type": "address"
        }
      ],
      "name": "isApprovedForAll",
      "outputs": [
        {
          "internalType": "bool",
          "name": "",
          "type": "bool"
        }
      ],
      "stateMutability": "view",
      "type": "function"
    },
    {
      "inputs": [],
      "name": "isOwner",
      "outputs": [
        {
          "internalType": "bool",
          "name": "",
          "type": "bool"
        }
      ],
      "stateMutability": "view",
      "type": "function"
    },
    {
      "inputs": [
        {
          "internalType": "string",
          "name": "",
          "type": "string"
        }
      ],
      "name": "launchDomainNames",
      "outputs": [
        {
          "internalType": "address",
          "name": "",
          "type": "address"
        }
      ],
      "stateMutability": "view",
      "type": "function"
    },
    {
      "inputs": [
        {
          "internalType": "address",
          "name": "",
          "type": "address"
        }
      ],
      "name": "launchDomainStatus",
      "outputs": [
        {
          "internalType": "string",
          "name": "name",
          "type": "string"
        },
        {
          "internalType": "uint256",
          "name": "deadline",
          "type": "uint256"
        },
        {
          "internalType": "uint256",
          "name": "initiatedTime",
          "type": "uint256"
        },
        {
          "internalType": "bool",
          "name": "active",
          "type": "bool"
        }
      ],
      "stateMutability": "view",
      "type": "function"
    },
    {
      "inputs": [
        {
          "internalType": "uint256",
          "name": "",
          "type": "uint256"
        }
      ],
      "name": "launchDomains",
      "outputs": [
        {
          "internalType": "string",
          "name": "name",
          "type": "string"
        },
        {
          "internalType": "uint256",
          "name": "deadline",
          "type": "uint256"
        },
        {
          "internalType": "uint256",
          "name": "initiatedTime",
          "type": "uint256"
        },
        {
          "internalType": "bool",
          "name": "active",
          "type": "bool"
        }
      ],
      "stateMutability": "view",
      "type": "function"
    },
    {
      "inputs": [],
      "name": "name",
      "outputs": [
        {
          "internalType": "string",
          "name": "",
          "type": "string"
        }
      ],
      "stateMutability": "view",
      "type": "function"
    },
    {
      "inputs": [
        {
          "internalType": "uint256",
          "name": "",
          "type": "uint256"
        }
      ],
      "name": "names",
      "outputs": [
        {
          "internalType": "string",
          "name": "",
          "type": "string"
        }
      ],
      "stateMutability": "view",
      "type": "function"
    },
    {
      "inputs": [],
      "name": "owner",
      "outputs": [
        {
          "internalType": "address payable",
          "name": "",
          "type": "address"
        }
      ],
      "stateMutability": "view",
      "type": "function"
    },
    {
      "inputs": [
        {
          "internalType": "uint256",
          "name": "tokenId",
          "type": "uint256"
        }
      ],
      "name": "ownerOf",
      "outputs": [
        {
          "internalType": "address",
          "name": "",
          "type": "address"
        }
      ],
      "stateMutability": "view",
      "type": "function"
    },
    {
      "inputs": [
        {
          "internalType": "string",
          "name": "name",
          "type": "string"
        }
      ],
      "name": "price",
      "outputs": [
        {
          "internalType": "uint256",
          "name": "",
          "type": "uint256"
        }
      ],
      "stateMutability": "pure",
      "type": "function"
    },
    {
      "inputs": [
        {
          "internalType": "string",
          "name": "",
          "type": "string"
        }
      ],
      "name": "records",
      "outputs": [
        {
          "internalType": "string",
          "name": "",
          "type": "string"
        }
      ],
      "stateMutability": "view",
      "type": "function"
    },
    {
      "inputs": [
        {
          "internalType": "string",
          "name": "name",
          "type": "string"
        }
      ],
      "name": "register",
      "outputs": [],
      "stateMutability": "payable",
      "type": "function"
    },
    {
      "inputs": [
        {
          "internalType": "string",
          "name": "name",
          "type": "string"
        },
        {
          "internalType": "uint256",
          "name": "numberOfDays",
          "type": "uint256"
        }
      ],
      "name": "registerLaunchDomain",
      "outputs": [],
      "stateMutability": "payable",
      "type": "function"
    },
    {
      "inputs": [
        {
          "internalType": "string",
          "name": "name",
          "type": "string"
        },
        {
          "internalType": "bool",
          "name": "userForceDelete",
          "type": "bool"
        }
      ],
      "name": "removeInactiveLaunchDomains",
      "outputs": [],
      "stateMutability": "nonpayable",
      "type": "function"
    },
    {
      "inputs": [
        {
          "internalType": "address",
          "name": "from",
          "type": "address"
        },
        {
          "internalType": "address",
          "name": "to",
          "type": "address"
        },
        {
          "internalType": "uint256",
          "name": "tokenId",
          "type": "uint256"
        }
      ],
      "name": "safeTransferFrom",
      "outputs": [],
      "stateMutability": "nonpayable",
      "type": "function"
    },
    {
      "inputs": [
        {
          "internalType": "address",
          "name": "from",
          "type": "address"
        },
        {
          "internalType": "address",
          "name": "to",
          "type": "address"
        },
        {
          "internalType": "uint256",
          "name": "tokenId",
          "type": "uint256"
        },
        {
          "internalType": "bytes",
          "name": "_data",
          "type": "bytes"
        }
      ],
      "name": "safeTransferFrom",
      "outputs": [],
      "stateMutability": "nonpayable",
      "type": "function"
    },
    {
      "inputs": [
        {
          "internalType": "address",
          "name": "operator",
          "type": "address"
        },
        {
          "internalType": "bool",
          "name": "approved",
          "type": "bool"
        }
      ],
      "name": "setApprovalForAll",
      "outputs": [],
      "stateMutability": "nonpayable",
      "type": "function"
    },
    {
      "inputs": [
        {
          "internalType": "string",
          "name": "name",
          "type": "string"
        },
        {
          "internalType": "string",
          "name": "record",
          "type": "string"
        }
      ],
      "name": "setRecord",
      "outputs": [],
      "stateMutability": "nonpayable",
      "type": "function"
    },
    {
      "inputs": [
        {
          "internalType": "bytes4",
          "name": "interfaceId",
          "type": "bytes4"
        }
      ],
      "name": "supportsInterface",
      "outputs": [
        {
          "internalType": "bool",
          "name": "",
          "type": "bool"
        }
      ],
      "stateMutability": "view",
      "type": "function"
    },
    {
      "inputs": [],
      "name": "symbol",
      "outputs": [
        {
          "internalType": "string",
          "name": "",
          "type": "string"
        }
      ],
      "stateMutability": "view",
      "type": "function"
    },
    {
      "inputs": [],
      "name": "tld",
      "outputs": [
        {
          "internalType": "string",
          "name": "",
          "type": "string"
        }
      ],
      "stateMutability": "view",
      "type": "function"
    },
    {
      "inputs": [
        {
          "internalType": "uint256",
          "name": "tokenId",
          "type": "uint256"
        }
      ],
      "name": "tokenURI",
      "outputs": [
        {
          "internalType": "string",
          "name": "",
          "type": "string"
        }
      ],
      "stateMutability": "view",
      "type": "function"
    },
    {
      "inputs": [
        {
          "internalType": "address",
          "name": "from",
          "type": "address"
        },
        {
          "internalType": "address",
          "name": "to",
          "type": "address"
        },
        {
          "internalType": "uint256",
          "name": "tokenId",
          "type": "uint256"
        }
      ],
      "name": "transferFrom",
      "outputs": [],
      "stateMutability": "nonpayable",
      "type": "function"
    },
    {
      "inputs": [
        {
          "internalType": "string",
          "name": "name",
          "type": "string"
        }
      ],
      "name": "valid",
      "outputs": [
        {
          "internalType": "bool",
          "name": "",
          "type": "bool"
        }
      ],
      "stateMutability": "pure",
      "type": "function"
    },
    {
      "inputs": [],
      "name": "withdraw",
      "outputs": [],
      "stateMutability": "nonpayable",
      "type": "function"
    }
  ],
  "bytecode": "0x6080604052604051806107a0016040528061076b81526020016200612861076b9139600e908051906020019062000038929190620002c8565b506040518060400160405280600d81526020017f3c2f746578743e3c2f7376673e00000000000000000000000000000000000000815250600f908051906020019062000086929190620002c8565b5060405162006893380380620068938339818101604052810190620000ac919062000515565b6040518060400160405280601081526020017f4c6974204e616d652053657276696365000000000000000000000000000000008152506040518060400160405280600381526020017f4c4e530000000000000000000000000000000000000000000000000000000000815250816000908051906020019062000130929190620002c8565b50806001908051906020019062000149929190620002c8565b50505033600960006101000a81548173ffffffffffffffffffffffffffffffffffffffff021916908373ffffffffffffffffffffffffffffffffffffffff1602179055508060089080519060200190620001a5929190620002c8565b50620001f26040518060400160405280601881526020017f2573206e616d652073657276696365206465706c6f796564000000000000000081525082620001f960201b6200257d1760201c565b5062000663565b6200029b828260405160240162000212929190620005c3565b6040516020818303038152906040527f4b5c4277000000000000000000000000000000000000000000000000000000007bffffffffffffffffffffffffffffffffffffffffffffffffffffffff19166020820180517bffffffffffffffffffffffffffffffffffffffffffffffffffffffff83818316178352505050506200029f60201b60201c565b5050565b60008151905060006a636f6e736f6c652e6c6f679050602083016000808483855afa5050505050565b828054620002d6906200062d565b90600052602060002090601f016020900481019282620002fa576000855562000346565b82601f106200031557805160ff191683800117855562000346565b8280016001018555821562000346579182015b828111156200034557825182559160200191906001019062000328565b5b50905062000355919062000359565b5090565b5b80821115620003745760008160009055506001016200035a565b5090565b6000604051905090565b600080fd5b600080fd5b600080fd5b600080fd5b6000601f19601f8301169050919050565b7f4e487b7100000000000000000000000000000000000000000000000000000000600052604160045260246000fd5b620003e18262000396565b810181811067ffffffffffffffff82111715620004035762000402620003a7565b5b80604052505050565b60006200041862000378565b9050620004268282620003d6565b919050565b600067ffffffffffffffff821115620004495762000448620003a7565b5b620004548262000396565b9050602081019050919050565b60005b838110156200048157808201518184015260208101905062000464565b8381111562000491576000848401525b50505050565b6000620004ae620004a8846200042b565b6200040c565b905082815260208101848484011115620004cd57620004cc62000391565b5b620004da84828562000461565b509392505050565b600082601f830112620004fa57620004f96200038c565b5b81516200050c84826020860162000497565b91505092915050565b6000602082840312156200052e576200052d62000382565b5b600082015167ffffffffffffffff8111156200054f576200054e62000387565b5b6200055d84828501620004e2565b91505092915050565b600081519050919050565b600082825260208201905092915050565b60006200058f8262000566565b6200059b818562000571565b9350620005ad81856020860162000461565b620005b88162000396565b840191505092915050565b60006040820190508181036000830152620005df818562000582565b90508181036020830152620005f5818462000582565b90509392505050565b7f4e487b7100000000000000000000000000000000000000000000000000000000600052602260045260246000fd5b600060028204905060018216806200064657607f821691505b602082108114156200065d576200065c620005fe565b5b50919050565b615ab580620006736000396000f3fe6080604052600436106101ee5760003560e01c806370a082311161010d578063bd189221116100a0578063e985e9c51161006f578063e985e9c514610787578063f060c4e2146107c4578063f2c298be146107e0578063fb825e5f146107fc578063fe2c619814610827576101ee565b8063bd189221146106a7578063bf40fac1146106e4578063c1880a9814610721578063c87b56dd1461074a576101ee565b80639791c097116100dc5780639791c097146105ef578063a22cb4651461062c578063ae4b621914610655578063b88d4fde1461067e576101ee565b806370a08231146105315780638da5cb5b1461056e5780638f32d59b1461059957806395d89b41146105c4576101ee565b8063264492351161018557806342842e0e1161015457806342842e0e146104515780634622ab031461047a578063541e771d146104b75780636352211e146104f4576101ee565b806326449235146103925780632728dc30146103cf5780632d5514321461040f5780633ccfd60b1461043a576101ee565b80630edd6d9b116101c15780630edd6d9b146102c157806311dd8845146103015780631916f9781461033e57806323b872dd14610369576101ee565b806301ffc9a7146101f357806306fdde0314610230578063081812fc1461025b578063095ea7b314610298575b600080fd5b3480156101ff57600080fd5b5061021a60048036038101906102159190613c0a565b610864565b6040516102279190613c52565b60405180910390f35b34801561023c57600080fd5b50610245610946565b6040516102529190613d06565b60405180910390f35b34801561026757600080fd5b50610282600480360381019061027d9190613d5e565b6109d8565b60405161028f9190613dcc565b60405180910390f35b3480156102a457600080fd5b506102bf60048036038101906102ba9190613e13565b610a5d565b005b3480156102cd57600080fd5b506102e860048036038101906102e39190613d5e565b610b75565b6040516102f89493929190613e62565b60405180910390f35b34801561030d57600080fd5b5061032860048036038101906103239190613f13565b610c4a565b6040516103359190613d06565b60405180910390f35b34801561034a57600080fd5b50610353610cfd565b6040516103609190613c52565b60405180910390f35b34801561037557600080fd5b50610390600480360381019061038b9190613f60565b610e61565b005b34801561039e57600080fd5b506103b960048036038101906103b491906140e3565b610ec1565b6040516103c69190613dcc565b60405180910390f35b3480156103db57600080fd5b506103f660048036038101906103f1919061412c565b610f0a565b6040516104069493929190613e62565b60405180910390f35b34801561041b57600080fd5b50610424610fcf565b6040516104319190613d06565b60405180910390f35b34801561044657600080fd5b5061044f61105d565b005b34801561045d57600080fd5b5061047860048036038101906104739190613f60565b611123565b005b34801561048657600080fd5b506104a1600480360381019061049c9190613d5e565b611143565b6040516104ae9190613d06565b60405180910390f35b3480156104c357600080fd5b506104de60048036038101906104d991906140e3565b6111e3565b6040516104eb9190613d06565b60405180910390f35b34801561050057600080fd5b5061051b60048036038101906105169190613d5e565b611299565b6040516105289190613dcc565b60405180910390f35b34801561053d57600080fd5b506105586004803603810190610553919061412c565b61134b565b6040516105659190614159565b60405180910390f35b34801561057a57600080fd5b50610583611403565b6040516105909190614195565b60405180910390f35b3480156105a557600080fd5b506105ae611429565b6040516105bb9190613c52565b60405180910390f35b3480156105d057600080fd5b506105d9611481565b6040516105e69190613d06565b60405180910390f35b3480156105fb57600080fd5b5061061660048036038101906106119190613f13565b611513565b6040516106239190613c52565b60405180910390f35b34801561063857600080fd5b50610653600480360381019061064e91906141dc565b6115c7565b005b34801561066157600080fd5b5061067c6004803603810190610677919061421c565b6115dd565b005b34801561068a57600080fd5b506106a560048036038101906106a0919061431d565b6118fe565b005b3480156106b357600080fd5b506106ce60048036038101906106c991906140e3565b611960565b6040516106db9190613dcc565b60405180910390f35b3480156106f057600080fd5b5061070b60048036038101906107069190613f13565b6119a9565b6040516107189190613dcc565b60405180910390f35b34801561072d57600080fd5b50610748600480360381019061074391906143a0565b6119f4565b005b34801561075657600080fd5b50610771600480360381019061076c9190613d5e565b611acf565b60405161077e9190613d06565b60405180910390f35b34801561079357600080fd5b506107ae60048036038101906107a99190614421565b611c21565b6040516107bb9190613c52565b60405180910390f35b6107de60048036038101906107d99190614461565b611cb5565b005b6107fa60048036038101906107f59190613f13565b6122f5565b005b34801561080857600080fd5b506108116122f9565b60405161081e91906145cd565b60405180910390f35b34801561083357600080fd5b5061084e60048036038101906108499190613f13565b6124d7565b60405161085b9190614159565b60405180910390f35b60007f80ac58cd000000000000000000000000000000000000000000000000000000007bffffffffffffffffffffffffffffffffffffffffffffffffffffffff1916827bffffffffffffffffffffffffffffffffffffffffffffffffffffffff1916148061092f57507f5b5e139f000000000000000000000000000000000000000000000000000000007bffffffffffffffffffffffffffffffffffffffffffffffffffffffff1916827bffffffffffffffffffffffffffffffffffffffffffffffffffffffff1916145b8061093f575061093e82612619565b5b9050919050565b6060600080546109559061461e565b80601f01602080910402602001604051908101604052809291908181526020018280546109819061461e565b80156109ce5780601f106109a3576101008083540402835291602001916109ce565b820191906000526020600020905b8154815290600101906020018083116109b157829003601f168201915b5050505050905090565b60006109e382612683565b610a22576040517f08c379a0000000000000000000000000000000000000000000000000000000008152600401610a19906146c2565b60405180910390fd5b6004600083815260200190815260200160002060009054906101000a900473ffffffffffffffffffffffffffffffffffffffff169050919050565b6000610a6882611299565b90508073ffffffffffffffffffffffffffffffffffffffff168373ffffffffffffffffffffffffffffffffffffffff161415610ad9576040517f08c379a0000000000000000000000000000000000000000000000000000000008152600401610ad090614754565b60405180910390fd5b8073ffffffffffffffffffffffffffffffffffffffff16610af86126ef565b73ffffffffffffffffffffffffffffffffffffffff161480610b275750610b2681610b216126ef565b611c21565b5b610b66576040517f08c379a0000000000000000000000000000000000000000000000000000000008152600401610b5d906147e6565b60405180910390fd5b610b7083836126f7565b505050565b60128181548110610b8557600080fd5b9060005260206000209060040201600091509050806000018054610ba89061461e565b80601f0160208091040260200160405190810160405280929190818152602001828054610bd49061461e565b8015610c215780601f10610bf657610100808354040283529160200191610c21565b820191906000526020600020905b815481529060010190602001808311610c0457829003601f168201915b5050505050908060010154908060020154908060030160009054906101000a900460ff16905084565b6060600b8383604051610c5e929190614836565b90815260200160405180910390208054610c779061461e565b80601f0160208091040260200160405190810160405280929190818152602001828054610ca39061461e565b8015610cf05780601f10610cc557610100808354040283529160200191610cf0565b820191906000526020600020905b815481529060010190602001808311610cd357829003601f168201915b5050505050905092915050565b600080601160003373ffffffffffffffffffffffffffffffffffffffff1673ffffffffffffffffffffffffffffffffffffffff168152602001908152602001600020604051806080016040529081600082018054610d5a9061461e565b80601f0160208091040260200160405190810160405280929190818152602001828054610d869061461e565b8015610dd35780601f10610da857610100808354040283529160200191610dd3565b820191906000526020600020905b815481529060010190602001808311610db657829003601f168201915b5050505050815260200160018201548152602001600282015481526020016003820160009054906101000a900460ff1615151515815250509050610e566040518060400160405280601e81526020017f25732068617320646f6d61696e2025732077697468207374617475733a20000081525033836000015184606001516127b0565b806060015191505090565b610e72610e6c6126ef565b82612852565b610eb1576040517f08c379a0000000000000000000000000000000000000000000000000000000008152600401610ea8906148c1565b60405180910390fd5b610ebc838383612930565b505050565b600a818051602081018201805184825260208301602085012081835280955050505050506000915054906101000a900473ffffffffffffffffffffffffffffffffffffffff1681565b6011602052806000526040600020600091509050806000018054610f2d9061461e565b80601f0160208091040260200160405190810160405280929190818152602001828054610f599061461e565b8015610fa65780601f10610f7b57610100808354040283529160200191610fa6565b820191906000526020600020905b815481529060010190602001808311610f8957829003601f168201915b5050505050908060010154908060020154908060030160009054906101000a900460ff16905084565b60088054610fdc9061461e565b80601f01602080910402602001604051908101604052809291908181526020018280546110089061461e565b80156110555780601f1061102a57610100808354040283529160200191611055565b820191906000526020600020905b81548152906001019060200180831161103857829003601f168201915b505050505081565b611065611429565b61106e57600080fd5b600047905060003373ffffffffffffffffffffffffffffffffffffffff168260405161109990614912565b60006040518083038185875af1925050503d80600081146110d6576040519150601f19603f3d011682016040523d82523d6000602084013e6110db565b606091505b505090508061111f576040517f08c379a000000000000000000000000000000000000000000000000000000000815260040161111690614973565b60405180910390fd5b5050565b61113e838383604051806020016040528060008152506118fe565b505050565b600c60205280600052604060002060009150905080546111629061461e565b80601f016020809104026020016040519081016040528092919081815260200182805461118e9061461e565b80156111db5780601f106111b0576101008083540402835291602001916111db565b820191906000526020600020905b8154815290600101906020018083116111be57829003601f168201915b505050505081565b600b8180516020810182018051848252602083016020850120818352809550505050505060009150905080546112189061461e565b80601f01602080910402602001604051908101604052809291908181526020018280546112449061461e565b80156112915780601f1061126657610100808354040283529160200191611291565b820191906000526020600020905b81548152906001019060200180831161127457829003601f168201915b505050505081565b6000806002600084815260200190815260200160002060009054906101000a900473ffffffffffffffffffffffffffffffffffffffff169050600073ffffffffffffffffffffffffffffffffffffffff168173ffffffffffffffffffffffffffffffffffffffff161415611342576040517f08c379a000000000000000000000000000000000000000000000000000000000815260040161133990614a05565b60405180910390fd5b80915050919050565b60008073ffffffffffffffffffffffffffffffffffffffff168273ffffffffffffffffffffffffffffffffffffffff1614156113bc576040517f08c379a00000000000000000000000000000000000000000000000000000000081526004016113b390614a97565b60405180910390fd5b600360008373ffffffffffffffffffffffffffffffffffffffff1673ffffffffffffffffffffffffffffffffffffffff168152602001908152602001600020549050919050565b600960009054906101000a900473ffffffffffffffffffffffffffffffffffffffff1681565b6000600960009054906101000a900473ffffffffffffffffffffffffffffffffffffffff1673ffffffffffffffffffffffffffffffffffffffff163373ffffffffffffffffffffffffffffffffffffffff1614905090565b6060600180546114909061461e565b80601f01602080910402602001604051908101604052809291908181526020018280546114bc9061461e565b80156115095780601f106114de57610100808354040283529160200191611509565b820191906000526020600020905b8154815290600101906020018083116114ec57829003601f168201915b5050505050905090565b6000600361156484848080601f016020809104026020016040519081016040528093929190818152602001838380828437600081840152601f19601f82011690508083019250505050505050612b97565b101580156115bf5750600a6115bc84848080601f016020809104026020016040519081016040528093929190818152602001838380828437600081840152601f19601f82011690508083019250505050505050612b97565b11155b905092915050565b6115d96115d26126ef565b8383612d4c565b5050565b6000601160003373ffffffffffffffffffffffffffffffffffffffff1673ffffffffffffffffffffffffffffffffffffffff1681526020019081526020016000206040518060800160405290816000820180546116399061461e565b80601f01602080910402602001604051908101604052809291908181526020018280546116659061461e565b80156116b25780601f10611687576101008083540402835291602001916116b2565b820191906000526020600020905b81548152906001019060200180831161169557829003601f168201915b5050505050815260200160018201548152602001600282015481526020016003820160009054906101000a900460ff161515151581525050905081806116fb5750428160200151115b156118f857600081606001901515908115158152505060008160400181815250506000816020018181525050601160003373ffffffffffffffffffffffffffffffffffffffff1673ffffffffffffffffffffffffffffffffffffffff168152602001908152602001600020600080820160006117779190613a0b565b600182016000905560028201600090556003820160006101000a81549060ff021916905550506000601085856040516117b1929190614836565b908152602001604051809103902060006101000a81548173ffffffffffffffffffffffffffffffffffffffff021916908373ffffffffffffffffffffffffffffffffffffffff16021790555060005b6012805490508110156118f65781600001516040516020016118229190614ae8565b604051602081830303815290604052805190602001206012828154811061184c5761184b614aff565b5b906000526020600020906004020160000160405160200161186d9190614bc2565b6040516020818303038152906040528051906020012014156118e3576012818154811061189d5761189c614aff565b5b9060005260206000209060040201600080820160006118bc9190613a0b565b600182016000905560028201600090556003820160006101000a81549060ff021916905550505b80806118ee90614c08565b915050611800565b505b50505050565b61190f6119096126ef565b83612852565b61194e576040517f08c379a0000000000000000000000000000000000000000000000000000000008152600401611945906148c1565b60405180910390fd5b61195a84848484612eb9565b50505050565b6010818051602081018201805184825260208301602085012081835280955050505050506000915054906101000a900473ffffffffffffffffffffffffffffffffffffffff1681565b6000600a83836040516119bd929190614836565b908152602001604051809103902060009054906101000a900473ffffffffffffffffffffffffffffffffffffffff16905092915050565b600a8484604051611a06929190614836565b908152602001604051809103902060009054906101000a900473ffffffffffffffffffffffffffffffffffffffff1673ffffffffffffffffffffffffffffffffffffffff163373ffffffffffffffffffffffffffffffffffffffff1614611a99576040517f82b4290000000000000000000000000000000000000000000000000000000000815260040160405180910390fd5b8181600b8686604051611aad929190614836565b90815260200160405180910390209190611ac8929190613a4b565b5050505050565b6060611ada82612683565b611b19576040517f08c379a0000000000000000000000000000000000000000000000000000000008152600401611b1090614cc3565b60405180910390fd5b6000600660008481526020019081526020016000208054611b399061461e565b80601f0160208091040260200160405190810160405280929190818152602001828054611b659061461e565b8015611bb25780601f10611b8757610100808354040283529160200191611bb2565b820191906000526020600020905b815481529060010190602001808311611b9557829003601f168201915b505050505090506000611bc3612f15565b9050600081511415611bd9578192505050611c1c565b600082511115611c0e578082604051602001611bf6929190614ce3565b60405160208183030381529060405292505050611c1c565b611c1784612f2c565b925050505b919050565b6000600560008473ffffffffffffffffffffffffffffffffffffffff1673ffffffffffffffffffffffffffffffffffffffff16815260200190815260200160002060008373ffffffffffffffffffffffffffffffffffffffff1673ffffffffffffffffffffffffffffffffffffffff16815260200190815260200160002060009054906101000a900460ff16905092915050565b600073ffffffffffffffffffffffffffffffffffffffff1660108484604051611cdf929190614836565b908152602001604051809103902060009054906101000a900473ffffffffffffffffffffffffffffffffffffffff1673ffffffffffffffffffffffffffffffffffffffff161480611d83575060001515601160003373ffffffffffffffffffffffffffffffffffffffff1673ffffffffffffffffffffffffffffffffffffffff16815260200190815260200160002060030160009054906101000a900460ff161515145b611d8c57600080fd5b611d968383611513565b611dd95782826040517f7f19f48d000000000000000000000000000000000000000000000000000000008152600401611dd0929190614d34565b60405180910390fd5b6000611de584846124d7565b905080341015611e2a576040517f08c379a0000000000000000000000000000000000000000000000000000000008152600401611e2190614da4565b60405180910390fd5b3360108585604051611e3d929190614836565b908152602001604051809103902060006101000a81548173ffffffffffffffffffffffffffffffffffffffff021916908373ffffffffffffffffffffffffffffffffffffffff1602179055506001601160003373ffffffffffffffffffffffffffffffffffffffff1673ffffffffffffffffffffffffffffffffffffffff16815260200190815260200160002060030160006101000a81548160ff021916908315150217905550611eec613ad1565b84848080601f016020809104026020016040519081016040528093929190818152602001838380828437600081840152601f19601f8201169050808301925050505050505081600001819052506201518083611f489190614dc4565b42611f539190614e1e565b81602001818152505042816040018181525050600181606001901515908115158152505060128190806001815401808255809150506001900390600052602060002090600402016000909190919091506000820151816000019080519060200190611fbf929190613afb565b50602082015181600101556040820151816002015560608201518160030160006101000a81548160ff02191690831515021790555050506120186040518060600160405280602b8152602001615a55602b913933612fd3565b60008585600860405160200161203093929190614ec0565b60405160208183030381529060405290506000600e82600f60405160200161205a93929190614f3d565b60405160208183030381529060405290506000612077600d61306f565b905060006120c889898080601f016020809104026020016040519081016040528093929190818152602001838380828437600081840152601f19601f82011690508083019250505050505050612b97565b905060006120d58261307d565b90506121c96040518060600160405280603181526020016159ab603191398b8b8080601f016020809104026020016040519081016040528093929190818152602001838380828437600081840152601f19601f82011690508083019250505050505050600880546121459061461e565b80601f01602080910402602001604051908101604052809291908181526020018280546121719061461e565b80156121be5780601f10612193576101008083540402835291602001916121be565b820191906000526020600020905b8154815290600101906020018083116121a157829003601f168201915b5050505050866131de565b60006121ff866121d887613280565b846040516020016121eb939291906150f5565b604051602081830303815290604052613280565b9050600081604051602001612214919061519e565b604051602081830303815290604052905061224660405180606001604052806039815260200161597260399139613418565b6122856040518060400160405280600e81526020017f46696e616c20746f6b656e5552490000000000000000000000000000000000008152508261257d565b6122a66040518060600160405280603981526020016159dc60399139613418565b6122b033866134b1565b6122ba85826134cf565b8b8b600c600088815260200190815260200160002091906122dc929190613a4b565b506122e7600d613543565b505050505050505050505050565b5050565b60606123396040518060400160405280601f81526020017f47657474696e6720616c6c206e616d65732066726f6d20636f6e747261637400815250613418565b6000612345600761306f565b67ffffffffffffffff81111561235e5761235d613fb8565b5b60405190808252806020026020018201604052801561239157816020015b606081526020019060019003908161237c5790505b50905060005b6123a1600761306f565b8110156124cf57600c600082815260200190815260200160002080546123c69061461e565b80601f01602080910402602001604051908101604052809291908181526020018280546123f29061461e565b801561243f5780601f106124145761010080835404028352916020019161243f565b820191906000526020600020905b81548152906001019060200180831161242257829003601f168201915b505050505082828151811061245757612456614aff565b5b60200260200101819052506124bc6040518060400160405280601781526020017f4e616d6520666f7220746f6b656e202564206973202573000000000000000000815250828484815181106124af576124ae614aff565b5b6020026020010151613559565b80806124c790614c08565b915050612397565b508091505090565b60008061252784848080601f016020809104026020016040519081016040528093929190818152602001838380828437600081840152601f19601f82011690508083019250505050505050612b97565b90506000811161253657600080fd5b6003811415612550576706f05b59d3b20000915050612577565b600481141561256a57670429d069189e0000915050612577565b67016345785d8a00009150505b92915050565b61261582826040516024016125939291906151c0565b6040516020818303038152906040527f4b5c4277000000000000000000000000000000000000000000000000000000007bffffffffffffffffffffffffffffffffffffffffffffffffffffffff19166020820180517bffffffffffffffffffffffffffffffffffffffffffffffffffffffff83818316178352505050506135f8565b5050565b60007f01ffc9a7000000000000000000000000000000000000000000000000000000007bffffffffffffffffffffffffffffffffffffffffffffffffffffffff1916827bffffffffffffffffffffffffffffffffffffffffffffffffffffffff1916149050919050565b60008073ffffffffffffffffffffffffffffffffffffffff166002600084815260200190815260200160002060009054906101000a900473ffffffffffffffffffffffffffffffffffffffff1673ffffffffffffffffffffffffffffffffffffffff1614159050919050565b600033905090565b816004600083815260200190815260200160002060006101000a81548173ffffffffffffffffffffffffffffffffffffffff021916908373ffffffffffffffffffffffffffffffffffffffff160217905550808273ffffffffffffffffffffffffffffffffffffffff1661276a83611299565b73ffffffffffffffffffffffffffffffffffffffff167f8c5be1e5ebec7d5bd14f71427d1e84f3dd0314c0f7b2291e5b200ac8c7c3b92560405160405180910390a45050565b61284c848484846040516024016127ca94939291906151f7565b6040516020818303038152906040527f5f15d28c000000000000000000000000000000000000000000000000000000007bffffffffffffffffffffffffffffffffffffffffffffffffffffffff19166020820180517bffffffffffffffffffffffffffffffffffffffffffffffffffffffff83818316178352505050506135f8565b50505050565b600061285d82612683565b61289c576040517f08c379a0000000000000000000000000000000000000000000000000000000008152600401612893906152bc565b60405180910390fd5b60006128a783611299565b90508073ffffffffffffffffffffffffffffffffffffffff168473ffffffffffffffffffffffffffffffffffffffff16148061291657508373ffffffffffffffffffffffffffffffffffffffff166128fe846109d8565b73ffffffffffffffffffffffffffffffffffffffff16145b8061292757506129268185611c21565b5b91505092915050565b8273ffffffffffffffffffffffffffffffffffffffff1661295082611299565b73ffffffffffffffffffffffffffffffffffffffff16146129a6576040517f08c379a000000000000000000000000000000000000000000000000000000000815260040161299d9061534e565b60405180910390fd5b600073ffffffffffffffffffffffffffffffffffffffff168273ffffffffffffffffffffffffffffffffffffffff161415612a16576040517f08c379a0000000000000000000000000000000000000000000000000000000008152600401612a0d906153e0565b60405180910390fd5b612a21838383613621565b612a2c6000826126f7565b6001600360008573ffffffffffffffffffffffffffffffffffffffff1673ffffffffffffffffffffffffffffffffffffffff1681526020019081526020016000206000828254612a7c9190615400565b925050819055506001600360008473ffffffffffffffffffffffffffffffffffffffff1673ffffffffffffffffffffffffffffffffffffffff1681526020019081526020016000206000828254612ad39190614e1e565b92505081905550816002600083815260200190815260200160002060006101000a81548173ffffffffffffffffffffffffffffffffffffffff021916908373ffffffffffffffffffffffffffffffffffffffff160217905550808273ffffffffffffffffffffffffffffffffffffffff168473ffffffffffffffffffffffffffffffffffffffff167fddf252ad1be2c89b69c2b068fc378daa952ba7f163c4a11628f55a4df523b3ef60405160405180910390a4612b92838383613626565b505050565b60008060008084519050600092505b80821015612d41576000858381518110612bc357612bc2614aff565b5b602001015160f81c60f81b9050608060f81b817effffffffffffffffffffffffffffffffffffffffffffffffffffffffffffff19161015612c1257600183612c0b9190614e1e565b9250612d2d565b60e060f81b817effffffffffffffffffffffffffffffffffffffffffffffffffffffffffffff19161015612c5457600283612c4d9190614e1e565b9250612d2c565b60f060f81b817effffffffffffffffffffffffffffffffffffffffffffffffffffffffffffff19161015612c9657600383612c8f9190614e1e565b9250612d2b565b60f8801b817effffffffffffffffffffffffffffffffffffffffffffffffffffffffffffff19161015612cd757600483612cd09190614e1e565b9250612d2a565b60fc60f81b817effffffffffffffffffffffffffffffffffffffffffffffffffffffffffffff19161015612d1957600583612d129190614e1e565b9250612d29565b600683612d269190614e1e565b92505b5b5b5b5b508280612d3990614c08565b935050612ba6565b829350505050919050565b8173ffffffffffffffffffffffffffffffffffffffff168373ffffffffffffffffffffffffffffffffffffffff161415612dbb576040517f08c379a0000000000000000000000000000000000000000000000000000000008152600401612db290615480565b60405180910390fd5b80600560008573ffffffffffffffffffffffffffffffffffffffff1673ffffffffffffffffffffffffffffffffffffffff16815260200190815260200160002060008473ffffffffffffffffffffffffffffffffffffffff1673ffffffffffffffffffffffffffffffffffffffff16815260200190815260200160002060006101000a81548160ff0219169083151502179055508173ffffffffffffffffffffffffffffffffffffffff168373ffffffffffffffffffffffffffffffffffffffff167f17307eab39ab6107e8899845ad3d59bd9653f200f220920489ca2b5937696c3183604051612eac9190613c52565b60405180910390a3505050565b612ec4848484612930565b612ed08484848461362b565b612f0f576040517f08c379a0000000000000000000000000000000000000000000000000000000008152600401612f0690615512565b60405180910390fd5b50505050565b606060405180602001604052806000815250905090565b6060612f3782612683565b612f76576040517f08c379a0000000000000000000000000000000000000000000000000000000008152600401612f6d906155a4565b60405180910390fd5b6000612f80612f15565b90506000815111612fa05760405180602001604052806000815250612fcb565b80612faa8461307d565b604051602001612fbb929190614ce3565b6040516020818303038152906040525b915050919050565b61306b8282604051602401612fe99291906155c4565b6040516020818303038152906040527f319af333000000000000000000000000000000000000000000000000000000007bffffffffffffffffffffffffffffffffffffffffffffffffffffffff19166020820180517bffffffffffffffffffffffffffffffffffffffffffffffffffffffff83818316178352505050506135f8565b5050565b600081600001549050919050565b606060008214156130c5576040518060400160405280600181526020017f300000000000000000000000000000000000000000000000000000000000000081525090506131d9565b600082905060005b600082146130f75780806130e090614c08565b915050600a826130f09190615623565b91506130cd565b60008167ffffffffffffffff81111561311357613112613fb8565b5b6040519080825280601f01601f1916602001820160405280156131455781602001600182028036833780820191505090505b5090505b600085146131d25760018261315e9190615400565b9150600a8561316d9190615654565b60306131799190614e1e565b60f81b81838151811061318f5761318e614aff565b5b60200101907effffffffffffffffffffffffffffffffffffffffffffffffffffffffffffff1916908160001a905350600a856131cb9190615623565b9450613149565b8093505050505b919050565b61327a848484846040516024016131f89493929190615685565b6040516020818303038152906040527f9fd009f5000000000000000000000000000000000000000000000000000000007bffffffffffffffffffffffffffffffffffffffffffffffffffffffff19166020820180517bffffffffffffffffffffffffffffffffffffffffffffffffffffffff83818316178352505050506135f8565b50505050565b606060008251905060008114156132a95760405180602001604052806000815250915050613413565b600060036002836132ba9190614e1e565b6132c49190615623565b60046132d09190614dc4565b905060006020826132e19190614e1e565b67ffffffffffffffff8111156132fa576132f9613fb8565b5b6040519080825280601f01601f19166020018201604052801561332c5781602001600182028036833780820191505090505b5090506000604051806060016040528060408152602001615a15604091399050600181016020830160005b868110156133d05760038101905062ffffff818a015116603f8160121c168401518060081b905060ff603f83600c1c1686015116810190508060081b905060ff603f8360061c1686015116810190508060081b905060ff603f831686015116810190508060e01b90508084526004840193505050613357565b5060038606600181146133ea57600281146133fa57613405565b613d3d60f01b6002830352613405565b603d60f81b60018303525b508484525050819450505050505b919050565b6134ae8160405160240161342c9190613d06565b6040516020818303038152906040527f41304fac000000000000000000000000000000000000000000000000000000007bffffffffffffffffffffffffffffffffffffffffffffffffffffffff19166020820180517bffffffffffffffffffffffffffffffffffffffffffffffffffffffff83818316178352505050506135f8565b50565b6134cb8282604051806020016040528060008152506137b3565b5050565b6134d882612683565b613517576040517f08c379a000000000000000000000000000000000000000000000000000000000815260040161350e90615751565b60405180910390fd5b8060066000848152602001908152602001600020908051906020019061353e929190613afb565b505050565b6001816000016000828254019250508190555050565b6135f383838360405160240161357193929190615771565b6040516020818303038152906040527fa3f5c739000000000000000000000000000000000000000000000000000000007bffffffffffffffffffffffffffffffffffffffffffffffffffffffff19166020820180517bffffffffffffffffffffffffffffffffffffffffffffffffffffffff83818316178352505050506135f8565b505050565b60008151905060006a636f6e736f6c652e6c6f679050602083016000808483855afa5050505050565b505050565b505050565b600061364c8473ffffffffffffffffffffffffffffffffffffffff1661380e565b156137a6578373ffffffffffffffffffffffffffffffffffffffff1663150b7a026136756126ef565b8786866040518563ffffffff1660e01b8152600401613697949392919061580b565b6020604051808303816000875af19250505080156136d357506040513d601f19601f820116820180604052508101906136d0919061586c565b60015b613756573d8060008114613703576040519150601f19603f3d011682016040523d82523d6000602084013e613708565b606091505b5060008151141561374e576040517f08c379a000000000000000000000000000000000000000000000000000000000815260040161374590615512565b60405180910390fd5b805181602001fd5b63150b7a0260e01b7bffffffffffffffffffffffffffffffffffffffffffffffffffffffff1916817bffffffffffffffffffffffffffffffffffffffffffffffffffffffff1916149150506137ab565b600190505b949350505050565b6137bd8383613831565b6137ca600084848461362b565b613809576040517f08c379a000000000000000000000000000000000000000000000000000000000815260040161380090615512565b60405180910390fd5b505050565b6000808273ffffffffffffffffffffffffffffffffffffffff163b119050919050565b600073ffffffffffffffffffffffffffffffffffffffff168273ffffffffffffffffffffffffffffffffffffffff1614156138a1576040517f08c379a0000000000000000000000000000000000000000000000000000000008152600401613898906158e5565b60405180910390fd5b6138aa81612683565b156138ea576040517f08c379a00000000000000000000000000000000000000000000000000000000081526004016138e190615951565b60405180910390fd5b6138f660008383613621565b6001600360008473ffffffffffffffffffffffffffffffffffffffff1673ffffffffffffffffffffffffffffffffffffffff16815260200190815260200160002060008282546139469190614e1e565b92505081905550816002600083815260200190815260200160002060006101000a81548173ffffffffffffffffffffffffffffffffffffffff021916908373ffffffffffffffffffffffffffffffffffffffff160217905550808273ffffffffffffffffffffffffffffffffffffffff16600073ffffffffffffffffffffffffffffffffffffffff167fddf252ad1be2c89b69c2b068fc378daa952ba7f163c4a11628f55a4df523b3ef60405160405180910390a4613a0760008383613626565b5050565b508054613a179061461e565b6000825580601f10613a295750613a48565b601f016020900490600052602060002090810190613a479190613b81565b5b50565b828054613a579061461e565b90600052602060002090601f016020900481019282613a795760008555613ac0565b82601f10613a9257803560ff1916838001178555613ac0565b82800160010185558215613ac0579182015b82811115613abf578235825591602001919060010190613aa4565b5b509050613acd9190613b81565b5090565b60405180608001604052806060815260200160008152602001600081526020016000151581525090565b828054613b079061461e565b90600052602060002090601f016020900481019282613b295760008555613b70565b82601f10613b4257805160ff1916838001178555613b70565b82800160010185558215613b70579182015b82811115613b6f578251825591602001919060010190613b54565b5b509050613b7d9190613b81565b5090565b5b80821115613b9a576000816000905550600101613b82565b5090565b6000604051905090565b600080fd5b600080fd5b60007fffffffff0000000000000000000000000000000000000000000000000000000082169050919050565b613be781613bb2565b8114613bf257600080fd5b50565b600081359050613c0481613bde565b92915050565b600060208284031215613c2057613c1f613ba8565b5b6000613c2e84828501613bf5565b91505092915050565b60008115159050919050565b613c4c81613c37565b82525050565b6000602082019050613c676000830184613c43565b92915050565b600081519050919050565b600082825260208201905092915050565b60005b83811015613ca7578082015181840152602081019050613c8c565b83811115613cb6576000848401525b50505050565b6000601f19601f8301169050919050565b6000613cd882613c6d565b613ce28185613c78565b9350613cf2818560208601613c89565b613cfb81613cbc565b840191505092915050565b60006020820190508181036000830152613d208184613ccd565b905092915050565b6000819050919050565b613d3b81613d28565b8114613d4657600080fd5b50565b600081359050613d5881613d32565b92915050565b600060208284031215613d7457613d73613ba8565b5b6000613d8284828501613d49565b91505092915050565b600073ffffffffffffffffffffffffffffffffffffffff82169050919050565b6000613db682613d8b565b9050919050565b613dc681613dab565b82525050565b6000602082019050613de16000830184613dbd565b92915050565b613df081613dab565b8114613dfb57600080fd5b50565b600081359050613e0d81613de7565b92915050565b60008060408385031215613e2a57613e29613ba8565b5b6000613e3885828601613dfe565b9250506020613e4985828601613d49565b9150509250929050565b613e5c81613d28565b82525050565b60006080820190508181036000830152613e7c8187613ccd565b9050613e8b6020830186613e53565b613e986040830185613e53565b613ea56060830184613c43565b95945050505050565b600080fd5b600080fd5b600080fd5b60008083601f840112613ed357613ed2613eae565b5b8235905067ffffffffffffffff811115613ef057613eef613eb3565b5b602083019150836001820283011115613f0c57613f0b613eb8565b5b9250929050565b60008060208385031215613f2a57613f29613ba8565b5b600083013567ffffffffffffffff811115613f4857613f47613bad565b5b613f5485828601613ebd565b92509250509250929050565b600080600060608486031215613f7957613f78613ba8565b5b6000613f8786828701613dfe565b9350506020613f9886828701613dfe565b9250506040613fa986828701613d49565b9150509250925092565b600080fd5b7f4e487b7100000000000000000000000000000000000000000000000000000000600052604160045260246000fd5b613ff082613cbc565b810181811067ffffffffffffffff8211171561400f5761400e613fb8565b5b80604052505050565b6000614022613b9e565b905061402e8282613fe7565b919050565b600067ffffffffffffffff82111561404e5761404d613fb8565b5b61405782613cbc565b9050602081019050919050565b82818337600083830152505050565b600061408661408184614033565b614018565b9050828152602081018484840111156140a2576140a1613fb3565b5b6140ad848285614064565b509392505050565b600082601f8301126140ca576140c9613eae565b5b81356140da848260208601614073565b91505092915050565b6000602082840312156140f9576140f8613ba8565b5b600082013567ffffffffffffffff81111561411757614116613bad565b5b614123848285016140b5565b91505092915050565b60006020828403121561414257614141613ba8565b5b600061415084828501613dfe565b91505092915050565b600060208201905061416e6000830184613e53565b92915050565b600061417f82613d8b565b9050919050565b61418f81614174565b82525050565b60006020820190506141aa6000830184614186565b92915050565b6141b981613c37565b81146141c457600080fd5b50565b6000813590506141d6816141b0565b92915050565b600080604083850312156141f3576141f2613ba8565b5b600061420185828601613dfe565b9250506020614212858286016141c7565b9150509250929050565b60008060006040848603121561423557614234613ba8565b5b600084013567ffffffffffffffff81111561425357614252613bad565b5b61425f86828701613ebd565b93509350506020614272868287016141c7565b9150509250925092565b600067ffffffffffffffff82111561429757614296613fb8565b5b6142a082613cbc565b9050602081019050919050565b60006142c06142bb8461427c565b614018565b9050828152602081018484840111156142dc576142db613fb3565b5b6142e7848285614064565b509392505050565b600082601f83011261430457614303613eae565b5b81356143148482602086016142ad565b91505092915050565b6000806000806080858703121561433757614336613ba8565b5b600061434587828801613dfe565b945050602061435687828801613dfe565b935050604061436787828801613d49565b925050606085013567ffffffffffffffff81111561438857614387613bad565b5b614394878288016142ef565b91505092959194509250565b600080600080604085870312156143ba576143b9613ba8565b5b600085013567ffffffffffffffff8111156143d8576143d7613bad565b5b6143e487828801613ebd565b9450945050602085013567ffffffffffffffff81111561440757614406613bad565b5b61441387828801613ebd565b925092505092959194509250565b6000806040838503121561443857614437613ba8565b5b600061444685828601613dfe565b925050602061445785828601613dfe565b9150509250929050565b60008060006040848603121561447a57614479613ba8565b5b600084013567ffffffffffffffff81111561449857614497613bad565b5b6144a486828701613ebd565b935093505060206144b786828701613d49565b9150509250925092565b600081519050919050565b600082825260208201905092915050565b6000819050602082019050919050565b600082825260208201905092915050565b600061450982613c6d565b61451381856144ed565b9350614523818560208601613c89565b61452c81613cbc565b840191505092915050565b600061454383836144fe565b905092915050565b6000602082019050919050565b6000614563826144c1565b61456d81856144cc565b93508360208202850161457f856144dd565b8060005b858110156145bb578484038952815161459c8582614537565b94506145a78361454b565b925060208a01995050600181019050614583565b50829750879550505050505092915050565b600060208201905081810360008301526145e78184614558565b905092915050565b7f4e487b7100000000000000000000000000000000000000000000000000000000600052602260045260246000fd5b6000600282049050600182168061463657607f821691505b6020821081141561464a576146496145ef565b5b50919050565b7f4552433732313a20617070726f76656420717565727920666f72206e6f6e657860008201527f697374656e7420746f6b656e0000000000000000000000000000000000000000602082015250565b60006146ac602c83613c78565b91506146b782614650565b604082019050919050565b600060208201905081810360008301526146db8161469f565b9050919050565b7f4552433732313a20617070726f76616c20746f2063757272656e74206f776e6560008201527f7200000000000000000000000000000000000000000000000000000000000000602082015250565b600061473e602183613c78565b9150614749826146e2565b604082019050919050565b6000602082019050818103600083015261476d81614731565b9050919050565b7f4552433732313a20617070726f76652063616c6c6572206973206e6f74206f7760008201527f6e6572206e6f7220617070726f76656420666f7220616c6c0000000000000000602082015250565b60006147d0603883613c78565b91506147db82614774565b604082019050919050565b600060208201905081810360008301526147ff816147c3565b9050919050565b600081905092915050565b600061481d8385614806565b935061482a838584614064565b82840190509392505050565b6000614843828486614811565b91508190509392505050565b7f4552433732313a207472616e736665722063616c6c6572206973206e6f74206f60008201527f776e6572206e6f7220617070726f766564000000000000000000000000000000602082015250565b60006148ab603183613c78565b91506148b68261484f565b604082019050919050565b600060208201905081810360008301526148da8161489e565b9050919050565b600081905092915050565b50565b60006148fc6000836148e1565b9150614907826148ec565b600082019050919050565b600061491d826148ef565b9150819050919050565b7f4661696c656420746f207769746864726177204d617469630000000000000000600082015250565b600061495d601883613c78565b915061496882614927565b602082019050919050565b6000602082019050818103600083015261498c81614950565b9050919050565b7f4552433732313a206f776e657220717565727920666f72206e6f6e657869737460008201527f656e7420746f6b656e0000000000000000000000000000000000000000000000602082015250565b60006149ef602983613c78565b91506149fa82614993565b604082019050919050565b60006020820190508181036000830152614a1e816149e2565b9050919050565b7f4552433732313a2062616c616e636520717565727920666f7220746865207a6560008201527f726f206164647265737300000000000000000000000000000000000000000000602082015250565b6000614a81602a83613c78565b9150614a8c82614a25565b604082019050919050565b60006020820190508181036000830152614ab081614a74565b9050919050565b6000614ac282613c6d565b614acc8185614806565b9350614adc818560208601613c89565b80840191505092915050565b6000614af48284614ab7565b915081905092915050565b7f4e487b7100000000000000000000000000000000000000000000000000000000600052603260045260246000fd5b60008190508160005260206000209050919050565b60008154614b508161461e565b614b5a8186614806565b94506001821660008114614b755760018114614b8657614bb9565b60ff19831686528186019350614bb9565b614b8f85614b2e565b60005b83811015614bb157815481890152600182019150602081019050614b92565b838801955050505b50505092915050565b6000614bce8284614b43565b915081905092915050565b7f4e487b7100000000000000000000000000000000000000000000000000000000600052601160045260246000fd5b6000614c1382613d28565b91507fffffffffffffffffffffffffffffffffffffffffffffffffffffffffffffffff821415614c4657614c45614bd9565b5b600182019050919050565b7f45524337323155524953746f726167653a2055524920717565727920666f722060008201527f6e6f6e6578697374656e7420746f6b656e000000000000000000000000000000602082015250565b6000614cad603183613c78565b9150614cb882614c51565b604082019050919050565b60006020820190508181036000830152614cdc81614ca0565b9050919050565b6000614cef8285614ab7565b9150614cfb8284614ab7565b91508190509392505050565b6000614d138385613c78565b9350614d20838584614064565b614d2983613cbc565b840190509392505050565b60006020820190508181036000830152614d4f818486614d07565b90509392505050565b7f4e6f7420656e6f756768204d6174696320706169640000000000000000000000600082015250565b6000614d8e601583613c78565b9150614d9982614d58565b602082019050919050565b60006020820190508181036000830152614dbd81614d81565b9050919050565b6000614dcf82613d28565b9150614dda83613d28565b9250817fffffffffffffffffffffffffffffffffffffffffffffffffffffffffffffffff0483118215151615614e1357614e12614bd9565b5b828202905092915050565b6000614e2982613d28565b9150614e3483613d28565b9250827fffffffffffffffffffffffffffffffffffffffffffffffffffffffffffffffff03821115614e6957614e68614bd9565b5b828201905092915050565b7f2e00000000000000000000000000000000000000000000000000000000000000600082015250565b6000614eaa600183614806565b9150614eb582614e74565b600182019050919050565b6000614ecd828587614811565b9150614ed882614e9d565b9150614ee48284614b43565b9150819050949350505050565b7ff09f94a500000000000000000000000000000000000000000000000000000000600082015250565b6000614f27600483614806565b9150614f3282614ef1565b600482019050919050565b6000614f498286614b43565b9150614f558285614ab7565b9150614f6082614f1a565b9150614f6c8284614b43565b9150819050949350505050565b7f7b226e616d65223a202200000000000000000000000000000000000000000000600082015250565b6000614faf600a83614806565b9150614fba82614f79565b600a82019050919050565b7f222c20226465736372697074696f6e223a20224120646f6d61696e206f6e207460008201527f6865204c6974206e616d652073657276696365222c2022696d616765223a202260208201527f646174613a696d6167652f7376672b786d6c3b6261736536342c000000000000604082015250565b6000615047605a83614806565b915061505282614fc5565b605a82019050919050565b7f222c226c656e677468223a220000000000000000000000000000000000000000600082015250565b6000615093600c83614806565b915061509e8261505d565b600c82019050919050565b7f227d000000000000000000000000000000000000000000000000000000000000600082015250565b60006150df600283614806565b91506150ea826150a9565b600282019050919050565b600061510082614fa2565b915061510c8286614ab7565b91506151178261503a565b91506151238285614ab7565b915061512e82615086565b915061513a8284614ab7565b9150615145826150d2565b9150819050949350505050565b7f646174613a6170706c69636174696f6e2f6a736f6e3b6261736536342c000000600082015250565b6000615188601d83614806565b915061519382615152565b601d82019050919050565b60006151a98261517b565b91506151b58284614ab7565b915081905092915050565b600060408201905081810360008301526151da8185613ccd565b905081810360208301526151ee8184613ccd565b90509392505050565b600060808201905081810360008301526152118187613ccd565b90506152206020830186613dbd565b81810360408301526152328185613ccd565b90506152416060830184613c43565b95945050505050565b7f4552433732313a206f70657261746f7220717565727920666f72206e6f6e657860008201527f697374656e7420746f6b656e0000000000000000000000000000000000000000602082015250565b60006152a6602c83613c78565b91506152b18261524a565b604082019050919050565b600060208201905081810360008301526152d581615299565b9050919050565b7f4552433732313a207472616e736665722066726f6d20696e636f72726563742060008201527f6f776e6572000000000000000000000000000000000000000000000000000000602082015250565b6000615338602583613c78565b9150615343826152dc565b604082019050919050565b600060208201905081810360008301526153678161532b565b9050919050565b7f4552433732313a207472616e7366657220746f20746865207a65726f2061646460008201527f7265737300000000000000000000000000000000000000000000000000000000602082015250565b60006153ca602483613c78565b91506153d58261536e565b604082019050919050565b600060208201905081810360008301526153f9816153bd565b9050919050565b600061540b82613d28565b915061541683613d28565b92508282101561542957615428614bd9565b5b828203905092915050565b7f4552433732313a20617070726f766520746f2063616c6c657200000000000000600082015250565b600061546a601983613c78565b915061547582615434565b602082019050919050565b600060208201905081810360008301526154998161545d565b9050919050565b7f4552433732313a207472616e7366657220746f206e6f6e20455243373231526560008201527f63656976657220696d706c656d656e7465720000000000000000000000000000602082015250565b60006154fc603283613c78565b9150615507826154a0565b604082019050919050565b6000602082019050818103600083015261552b816154ef565b9050919050565b7f4552433732314d657461646174613a2055524920717565727920666f72206e6f60008201527f6e6578697374656e7420746f6b656e0000000000000000000000000000000000602082015250565b600061558e602f83613c78565b915061559982615532565b604082019050919050565b600060208201905081810360008301526155bd81615581565b9050919050565b600060408201905081810360008301526155de8185613ccd565b90506155ed6020830184613dbd565b9392505050565b7f4e487b7100000000000000000000000000000000000000000000000000000000600052601260045260246000fd5b600061562e82613d28565b915061563983613d28565b925082615649576156486155f4565b5b828204905092915050565b600061565f82613d28565b915061566a83613d28565b92508261567a576156796155f4565b5b828206905092915050565b6000608082019050818103600083015261569f8187613ccd565b905081810360208301526156b38186613ccd565b905081810360408301526156c78185613ccd565b90506156d66060830184613e53565b95945050505050565b7f45524337323155524953746f726167653a2055524920736574206f66206e6f6e60008201527f6578697374656e7420746f6b656e000000000000000000000000000000000000602082015250565b600061573b602e83613c78565b9150615746826156df565b604082019050919050565b6000602082019050818103600083015261576a8161572e565b9050919050565b6000606082019050818103600083015261578b8186613ccd565b905061579a6020830185613e53565b81810360408301526157ac8184613ccd565b9050949350505050565b600081519050919050565b600082825260208201905092915050565b60006157dd826157b6565b6157e781856157c1565b93506157f7818560208601613c89565b61580081613cbc565b840191505092915050565b60006080820190506158206000830187613dbd565b61582d6020830186613dbd565b61583a6040830185613e53565b818103606083015261584c81846157d2565b905095945050505050565b60008151905061586681613bde565b92915050565b60006020828403121561588257615881613ba8565b5b600061589084828501615857565b91505092915050565b7f4552433732313a206d696e7420746f20746865207a65726f2061646472657373600082015250565b60006158cf602083613c78565b91506158da82615899565b602082019050919050565b600060208201905081810360008301526158fe816158c2565b9050919050565b7f4552433732313a20746f6b656e20616c7265616479206d696e74656400000000600082015250565b600061593b601c83613c78565b915061594682615905565b602082019050919050565b6000602082019050818103600083015261596a8161592e565b905091905056fe0a2d2d2d2d2d2d2d2d2d2d2d2d2d2d2d2d2d2d2d2d2d2d2d2d2d2d2d2d2d2d2d2d2d2d2d2d2d2d2d2d2d2d2d2d2d2d2d2d2d2d2d2d2d2d2d2d5265676973746572696e672025732e2573206f6e2074686520636f6e7472616374207769746820746f6b656e49442025642d2d2d2d2d2d2d2d2d2d2d2d2d2d2d2d2d2d2d2d2d2d2d2d2d2d2d2d2d2d2d2d2d2d2d2d2d2d2d2d2d2d2d2d2d2d2d2d2d2d2d2d2d2d2d2d0a4142434445464748494a4b4c4d4e4f505152535455565758595a6162636465666768696a6b6c6d6e6f707172737475767778797a303132333435363738392b2f2573206861732074656d706f726172696c7920637265617465642061206c61756e636820646f6d61696e21a26469706673582212201bc856321c36e8b8f4f58c3f0772ce718ab1b690eb4d7adc86050a6ba702a43864736f6c634300080a00333c73766720786d6c6e733d22687474703a2f2f7777772e77332e6f72672f323030302f737667222077696474683d2232373022206865696768743d22323730222066696c6c3d226e6f6e65223e3c706174682066696c6c3d2275726c282361292220643d224d302030683237307632373048307a222f3e3c646566733e3c66696c7465722069643d22622220636f6c6f722d696e746572706f6c6174696f6e2d66696c746572733d2273524742222066696c746572556e6974733d227573657253706163654f6e55736522206865696768743d22323730222077696474683d22323730223e3c666544726f70536861646f772064783d2230222064793d22312220737464446576696174696f6e3d22322220666c6f6f642d6f7061636974793d222e323235222077696474683d223230302522206865696768743d2232303025222f3e3c2f66696c7465723e3c2f646566733e3c7061746820643d224d37322e3836332034322e39343961342e33383220342e3338322030203020302d342e33393420306c2d31302e30383120362e3033322d362e383520332e3933342d31302e30383120362e30333261342e33383220342e3338322030203020312d342e33393420306c2d382e3031332d342e37323161342e353220342e35322030203020312d312e3538392d312e36313620342e353420342e35342030203020312d2e3630382d322e313837762d392e333161342e323720342e3237203020302031202e3537322d322e32303820342e323520342e323520302030203120312e3632352d312e3539356c372e3838342d342e353961342e33383220342e33383220302030203120342e33393420306c372e38383420342e353961342e353220342e353220302030203120312e35383920312e36313620342e353420342e3534203020302031202e36303820322e31383776362e3033326c362e38352d342e303635762d362e30333261342e323720342e32372030203020302d2e3537322d322e32303820342e323520342e32352030203020302d312e3632352d312e3539354c34312e3435362032342e353961342e33383220342e3338322030203020302d342e33393420306c2d31342e38363420382e36353561342e323520342e32352030203020302d312e36323520312e35393520342e32373320342e3237332030203020302d2e35373220322e3230387631372e34343161342e323720342e3237203020302030202e35373220322e32303820342e323520342e323520302030203020312e36323520312e3539356c31342e38363420382e36353561342e33383220342e33383220302030203020342e33393420306c31302e3038312d352e39303120362e38352d342e3036352031302e3038312d352e39303161342e33383220342e33383220302030203120342e33393420306c372e38383420342e353961342e353220342e353220302030203120312e35383920312e36313620342e353420342e3534203020302031202e36303820322e31383776392e33313161342e323720342e32372030203020312d2e35373220322e32303820342e323520342e32352030203020312d312e36323520312e3539356c2d372e38383420342e37323161342e33383220342e3338322030203020312d342e33393420306c2d372e3838342d342e353961342e353220342e35322030203020312d312e3538392d312e36313620342e353320342e35332030203020312d2e3630382d322e313837762d362e3033326c2d362e383520342e30363576362e30333261342e323720342e3237203020302030202e35373220322e32303820342e323520342e323520302030203020312e36323520312e3539356c31342e38363420382e36353561342e33383220342e33383220302030203020342e33393420306c31342e3836342d382e36353561342e35343520342e35343520302030203020322e3139382d332e3830335635352e35333861342e323720342e32372030203020302d2e3537322d322e32303820342e323520342e32352030203020302d312e3632352d312e3539356c2d31342e3939332d382e3738367a222066696c6c3d2273696c766572222f3e3c646566733e3c6c696e6561724772616469656e742069643d2261222078313d2230222079313d2230222078323d22323730222079323d2232373022206772616469656e74556e6974733d227573657253706163654f6e557365223e3c73746f702073746f702d636f6c6f723d222366666666222f3e3c73746f70206f66667365743d2231222073746f702d636f6c6f723d2267726179222073746f702d6f7061636974793d222e3939222f3e3c2f6c696e6561724772616469656e743e3c2f646566733e3c7465787420783d2233322e352220793d223233312220666f6e742d73697a653d223237222066696c6c3d2223303030222066696c7465723d2275726c282362292220666f6e742d66616d696c793d22506c7573204a616b617274612053616e732c44656a6156752053616e732c4e6f746f20436f6c6f7220456d6f6a692c4170706c6520436f6c6f7220456d6f6a692c73616e732d73657269662220666f6e742d7765696768743d22626f6c64223e",
  "linkReferences": {},
  "deployedLinkReferences": {}
}